{
  "_format": "hh-sol-artifact-1",
  "contractName": "InitialSale",
  "sourceName": "contracts/InitialSale.sol",
  "abi": [
    {
      "inputs": [
        {
          "internalType": "address",
          "name": "_factoryAddress",
          "type": "address"
        },
        {
          "internalType": "address",
          "name": "_MIRSAddress",
          "type": "address"
        },
        {
          "internalType": "address",
          "name": "_feeColectorAddress",
          "type": "address"
        }
      ],
      "stateMutability": "nonpayable",
      "type": "constructor"
    },
    {
      "anonymous": false,
      "inputs": [
        {
          "indexed": true,
          "internalType": "bytes32",
          "name": "role",
          "type": "bytes32"
        },
        {
          "indexed": true,
          "internalType": "bytes32",
          "name": "previousAdminRole",
          "type": "bytes32"
        },
        {
          "indexed": true,
          "internalType": "bytes32",
          "name": "newAdminRole",
          "type": "bytes32"
        }
      ],
      "name": "RoleAdminChanged",
      "type": "event"
    },
    {
      "anonymous": false,
      "inputs": [
        {
          "indexed": true,
          "internalType": "bytes32",
          "name": "role",
          "type": "bytes32"
        },
        {
          "indexed": true,
          "internalType": "address",
          "name": "account",
          "type": "address"
        },
        {
          "indexed": true,
          "internalType": "address",
          "name": "sender",
          "type": "address"
        }
      ],
      "name": "RoleGranted",
      "type": "event"
    },
    {
      "anonymous": false,
      "inputs": [
        {
          "indexed": true,
          "internalType": "bytes32",
          "name": "role",
          "type": "bytes32"
        },
        {
          "indexed": true,
          "internalType": "address",
          "name": "account",
          "type": "address"
        },
        {
          "indexed": true,
          "internalType": "address",
          "name": "sender",
          "type": "address"
        }
      ],
      "name": "RoleRevoked",
      "type": "event"
    },
    {
      "inputs": [],
      "name": "DEFAULT_ADMIN_ROLE",
      "outputs": [
        {
          "internalType": "bytes32",
          "name": "",
          "type": "bytes32"
        }
      ],
      "stateMutability": "view",
      "type": "function"
    },
    {
      "inputs": [
        {
          "internalType": "address",
          "name": "_to",
          "type": "address"
        }
      ],
      "name": "buyCitizenship",
      "outputs": [],
      "stateMutability": "payable",
      "type": "function"
    },
    {
      "inputs": [
        {
          "internalType": "address",
          "name": "_to",
          "type": "address"
        },
        {
          "internalType": "uint256",
          "name": "_id",
          "type": "uint256"
        },
        {
          "internalType": "uint256",
          "name": "_neighborhood",
          "type": "uint256"
        },
        {
          "internalType": "uint256",
          "name": "_macroBuilding",
          "type": "uint256"
        },
        {
          "internalType": "uint256",
          "name": "_cliffCity",
          "type": "uint256"
        }
      ],
      "name": "buyMIRS",
      "outputs": [],
      "stateMutability": "payable",
      "type": "function"
    },
    {
      "inputs": [
        {
          "internalType": "uint256",
          "name": "_newPrice",
          "type": "uint256"
        }
      ],
      "name": "changeCitizenshipPrice",
      "outputs": [],
      "stateMutability": "nonpayable",
      "type": "function"
    },
    {
      "inputs": [
        {
          "internalType": "uint256",
          "name": "_newPrice",
          "type": "uint256"
        }
      ],
      "name": "changeMIRSPrice",
      "outputs": [],
      "stateMutability": "nonpayable",
      "type": "function"
    },
    {
      "inputs": [],
      "name": "getCitizenshipPrice",
      "outputs": [
        {
          "internalType": "uint256",
          "name": "",
          "type": "uint256"
        }
      ],
      "stateMutability": "view",
      "type": "function"
    },
    {
      "inputs": [],
      "name": "getMIRSPrice",
      "outputs": [
        {
          "internalType": "uint256",
          "name": "",
          "type": "uint256"
        }
      ],
      "stateMutability": "view",
      "type": "function"
    },
    {
      "inputs": [
        {
          "internalType": "bytes32",
          "name": "role",
          "type": "bytes32"
        }
      ],
      "name": "getRoleAdmin",
      "outputs": [
        {
          "internalType": "bytes32",
          "name": "",
          "type": "bytes32"
        }
      ],
      "stateMutability": "view",
      "type": "function"
    },
    {
      "inputs": [
        {
          "internalType": "bytes32",
          "name": "role",
          "type": "bytes32"
        },
        {
          "internalType": "uint256",
          "name": "index",
          "type": "uint256"
        }
      ],
      "name": "getRoleMember",
      "outputs": [
        {
          "internalType": "address",
          "name": "",
          "type": "address"
        }
      ],
      "stateMutability": "view",
      "type": "function"
    },
    {
      "inputs": [
        {
          "internalType": "bytes32",
          "name": "role",
          "type": "bytes32"
        }
      ],
      "name": "getRoleMemberCount",
      "outputs": [
        {
          "internalType": "uint256",
          "name": "",
          "type": "uint256"
        }
      ],
      "stateMutability": "view",
      "type": "function"
    },
    {
      "inputs": [
        {
          "internalType": "bytes32",
          "name": "role",
          "type": "bytes32"
        },
        {
          "internalType": "address",
          "name": "account",
          "type": "address"
        }
      ],
      "name": "grantRole",
      "outputs": [],
      "stateMutability": "nonpayable",
      "type": "function"
    },
    {
      "inputs": [
        {
          "internalType": "bytes32",
          "name": "role",
          "type": "bytes32"
        },
        {
          "internalType": "address",
          "name": "account",
          "type": "address"
        }
      ],
      "name": "hasRole",
      "outputs": [
        {
          "internalType": "bool",
          "name": "",
          "type": "bool"
        }
      ],
      "stateMutability": "view",
      "type": "function"
    },
    {
      "inputs": [
        {
          "internalType": "bytes32",
          "name": "role",
          "type": "bytes32"
        },
        {
          "internalType": "address",
          "name": "account",
          "type": "address"
        }
      ],
      "name": "renounceRole",
      "outputs": [],
      "stateMutability": "nonpayable",
      "type": "function"
    },
    {
      "inputs": [
        {
          "internalType": "bytes32",
          "name": "role",
          "type": "bytes32"
        },
        {
          "internalType": "address",
          "name": "account",
          "type": "address"
        }
      ],
      "name": "revokeRole",
      "outputs": [],
      "stateMutability": "nonpayable",
      "type": "function"
    },
    {
      "inputs": [
        {
          "internalType": "bytes4",
          "name": "interfaceId",
          "type": "bytes4"
        }
      ],
      "name": "supportsInterface",
      "outputs": [
        {
          "internalType": "bool",
          "name": "",
          "type": "bool"
        }
      ],
      "stateMutability": "view",
      "type": "function"
    }
  ],
  "bytecode": "0x6080604052670de0b6b3a7640000600555670de0b6b3a76400006006553480156200002957600080fd5b506040516200137e3803806200137e8339810160408190526200004c9162000228565b600280546001600160a01b038086166001600160a01b0319928316179092556003805485841690831617905560048054928416929091169190911790556200009d6000620000973390565b620000a6565b50505062000272565b620000b28282620000b6565b5050565b620000cd8282620000f960201b620005dd1760201c565b6000828152600160209081526040909120620000f4918390620006cd62000199821b17901c565b505050565b6000828152602081815260408083206001600160a01b038516845290915290205460ff16620000b2576000828152602081815260408083206001600160a01b03851684529091529020805460ff19166001179055620001553390565b6001600160a01b0316816001600160a01b0316837f2f8788117e7eff1d82e926ec794901d17c78024a50270940304540a733656f0d60405160405180910390a45050565b6000620001b0836001600160a01b038416620001b9565b90505b92915050565b60008181526001830160205260408120546200020257508154600181810184556000848152602080822090930184905584548482528286019093526040902091909155620001b3565b506000620001b3565b80516001600160a01b03811681146200022357600080fd5b919050565b6000806000606084860312156200023e57600080fd5b62000249846200020b565b925062000259602085016200020b565b915062000269604085016200020b565b90509250925092565b6110fc80620002826000396000f3fe6080604052600436106100e85760003560e01c80637d50d02b1161008a57806396a7633b1161005957806396a7633b1461028f578063a217fddf146102a4578063ca15c873146102b9578063d547741f146102d957600080fd5b80637d50d02b146101e65780637e6396fe146101b35780639010d07c146101f957806391d148541461023e57600080fd5b80632f2ff15d116100c65780632f2ff15d1461017157806336568abe14610193578063468f8fc9146101b35780635ccb59e0146101d357600080fd5b806301ffc9a7146100ed57806307d122b414610122578063248a9ca314610141575b600080fd5b3480156100f957600080fd5b5061010d610108366004610e25565b6102f9565b60405190151581526020015b60405180910390f35b34801561012e57600080fd5b506006545b604051908152602001610119565b34801561014d57600080fd5b5061013361015c366004610dbe565b60009081526020819052604090206001015490565b34801561017d57600080fd5b5061019161018c366004610dd7565b610355565b005b34801561019f57600080fd5b506101916101ae366004610dd7565b610380565b3480156101bf57600080fd5b506101916101ce366004610dbe565b610438565b6101916101e1366004610d61565b610444565b6101916101f4366004610d7c565b6104d6565b34801561020557600080fd5b50610219610214366004610e03565b610581565b60405173ffffffffffffffffffffffffffffffffffffffff9091168152602001610119565b34801561024a57600080fd5b5061010d610259366004610dd7565b60009182526020828152604080842073ffffffffffffffffffffffffffffffffffffffff93909316845291905290205460ff1690565b34801561029b57600080fd5b50600554610133565b3480156102b057600080fd5b50610133600081565b3480156102c557600080fd5b506101336102d4366004610dbe565b6105a0565b3480156102e557600080fd5b506101916102f4366004610dd7565b6105b7565b60007fffffffff0000000000000000000000000000000000000000000000000000000082167f5a05180f00000000000000000000000000000000000000000000000000000000148061034f575061034f826106ef565b92915050565b6000828152602081905260409020600101546103718133610786565b61037b8383610856565b505050565b73ffffffffffffffffffffffffffffffffffffffff8116331461042a576040517f08c379a000000000000000000000000000000000000000000000000000000000815260206004820152602f60248201527f416363657373436f6e74726f6c3a2063616e206f6e6c792072656e6f756e636560448201527f20726f6c657320666f722073656c66000000000000000000000000000000000060648201526084015b60405180910390fd5b6104348282610878565b5050565b60006104348133610786565b6002546040517f94bf804d0000000000000000000000000000000000000000000000000000000081526000600482015273ffffffffffffffffffffffffffffffffffffffff83811660248301529091169081906394bf804d90604401600060405180830381600087803b1580156104ba57600080fd5b505af11580156104ce573d6000803e3d6000fd5b505050505050565b6003546040517fb8cb3b4800000000000000000000000000000000000000000000000000000000815273ffffffffffffffffffffffffffffffffffffffff87811660048301526024820187905260448201869052606482018590526084820184905290911690819063b8cb3b489060a401600060405180830381600087803b15801561056157600080fd5b505af1158015610575573d6000803e3d6000fd5b50505050505050505050565b6000828152600160205260408120610599908361089a565b9392505050565b600081815260016020526040812061034f906108a6565b6000828152602081905260409020600101546105d38133610786565b61037b8383610878565b60008281526020818152604080832073ffffffffffffffffffffffffffffffffffffffff8516845290915290205460ff166104345760008281526020818152604080832073ffffffffffffffffffffffffffffffffffffffff85168452909152902080547fffffffffffffffffffffffffffffffffffffffffffffffffffffffffffffff0016600117905561066f3390565b73ffffffffffffffffffffffffffffffffffffffff168173ffffffffffffffffffffffffffffffffffffffff16837f2f8788117e7eff1d82e926ec794901d17c78024a50270940304540a733656f0d60405160405180910390a45050565b60006105998373ffffffffffffffffffffffffffffffffffffffff84166108b0565b60007fffffffff0000000000000000000000000000000000000000000000000000000082167f7965db0b00000000000000000000000000000000000000000000000000000000148061034f57507f01ffc9a7000000000000000000000000000000000000000000000000000000007fffffffff0000000000000000000000000000000000000000000000000000000083161461034f565b60008281526020818152604080832073ffffffffffffffffffffffffffffffffffffffff8516845290915290205460ff16610434576107dc8173ffffffffffffffffffffffffffffffffffffffff1660146108ff565b6107e78360206108ff565b6040516020016107f8929190610e67565b604080517fffffffffffffffffffffffffffffffffffffffffffffffffffffffffffffffe0818403018152908290527f08c379a000000000000000000000000000000000000000000000000000000000825261042191600401610ee8565b61086082826105dd565b600082815260016020526040902061037b90826106cd565b6108828282610b42565b600082815260016020526040902061037b9082610bf9565b60006105998383610c1b565b600061034f825490565b60008181526001830160205260408120546108f75750815460018181018455600084815260208082209093018490558454848252828601909352604090209190915561034f565b50600061034f565b6060600061090e836002610f51565b610919906002610f39565b67ffffffffffffffff81111561093157610931611097565b6040519080825280601f01601f19166020018201604052801561095b576020820181803683370190505b5090507f30000000000000000000000000000000000000000000000000000000000000008160008151811061099257610992611068565b60200101907effffffffffffffffffffffffffffffffffffffffffffffffffffffffffffff1916908160001a9053507f7800000000000000000000000000000000000000000000000000000000000000816001815181106109f5576109f5611068565b60200101907effffffffffffffffffffffffffffffffffffffffffffffffffffffffffffff1916908160001a9053506000610a31846002610f51565b610a3c906001610f39565b90505b6001811115610ad9577f303132333435363738396162636465660000000000000000000000000000000085600f1660108110610a7d57610a7d611068565b1a60f81b828281518110610a9357610a93611068565b60200101907effffffffffffffffffffffffffffffffffffffffffffffffffffffffffffff1916908160001a90535060049490941c93610ad281610fd5565b9050610a3f565b508315610599576040517f08c379a000000000000000000000000000000000000000000000000000000000815260206004820181905260248201527f537472696e67733a20686578206c656e67746820696e73756666696369656e746044820152606401610421565b60008281526020818152604080832073ffffffffffffffffffffffffffffffffffffffff8516845290915290205460ff16156104345760008281526020818152604080832073ffffffffffffffffffffffffffffffffffffffff8516808552925280832080547fffffffffffffffffffffffffffffffffffffffffffffffffffffffffffffff0016905551339285917ff6391f5c32d9c69d2a47ea670b442974b53935d1edc7fd64eb21e047a839171b9190a45050565b60006105998373ffffffffffffffffffffffffffffffffffffffff8416610c45565b6000826000018281548110610c3257610c32611068565b9060005260206000200154905092915050565b60008181526001830160205260408120548015610d2e576000610c69600183610f8e565b8554909150600090610c7d90600190610f8e565b9050818114610ce2576000866000018281548110610c9d57610c9d611068565b9060005260206000200154905080876000018481548110610cc057610cc0611068565b6000918252602080832090910192909255918252600188019052604090208390555b8554869080610cf357610cf3611039565b60019003818190600052602060002001600090559055856001016000868152602001908152602001600020600090556001935050505061034f565b600091505061034f565b803573ffffffffffffffffffffffffffffffffffffffff81168114610d5c57600080fd5b919050565b600060208284031215610d7357600080fd5b61059982610d38565b600080600080600060a08688031215610d9457600080fd5b610d9d86610d38565b97602087013597506040870135966060810135965060800135945092505050565b600060208284031215610dd057600080fd5b5035919050565b60008060408385031215610dea57600080fd5b82359150610dfa60208401610d38565b90509250929050565b60008060408385031215610e1657600080fd5b50508035926020909101359150565b600060208284031215610e3757600080fd5b81357fffffffff000000000000000000000000000000000000000000000000000000008116811461059957600080fd5b7f416363657373436f6e74726f6c3a206163636f756e7420000000000000000000815260008351610e9f816017850160208801610fa5565b7f206973206d697373696e6720726f6c65200000000000000000000000000000006017918401918201528351610edc816028840160208801610fa5565b01602801949350505050565b6020815260008251806020840152610f07816040850160208701610fa5565b601f017fffffffffffffffffffffffffffffffffffffffffffffffffffffffffffffffe0169190910160400192915050565b60008219821115610f4c57610f4c61100a565b500190565b6000817fffffffffffffffffffffffffffffffffffffffffffffffffffffffffffffffff0483118215151615610f8957610f8961100a565b500290565b600082821015610fa057610fa061100a565b500390565b60005b83811015610fc0578181015183820152602001610fa8565b83811115610fcf576000848401525b50505050565b600081610fe457610fe461100a565b507fffffffffffffffffffffffffffffffffffffffffffffffffffffffffffffffff0190565b7f4e487b7100000000000000000000000000000000000000000000000000000000600052601160045260246000fd5b7f4e487b7100000000000000000000000000000000000000000000000000000000600052603160045260246000fd5b7f4e487b7100000000000000000000000000000000000000000000000000000000600052603260045260246000fd5b7f4e487b7100000000000000000000000000000000000000000000000000000000600052604160045260246000fdfea2646970667358221220f35598ff610f231013e713938b5f5f4d7653971b9e4e088b87a50ce0cd2e4e8864736f6c63430008070033",
  "linkReferences": {},
  "deployedLinkReferences": {}
}