{
  "_format": "hh-sol-artifact-1",
  "contractName": "NativeMetaTransaction",
  "sourceName": "contracts/common/meta-transactions/NativeMetaTransaction.sol",
  "abi": [
    {
      "anonymous": false,
      "inputs": [
        {
          "indexed": false,
          "internalType": "address",
          "name": "userAddress",
          "type": "address"
        },
        {
          "indexed": false,
          "internalType": "address payable",
          "name": "relayerAddress",
          "type": "address"
        },
        {
          "indexed": false,
          "internalType": "bytes",
          "name": "functionSignature",
          "type": "bytes"
        }
      ],
      "name": "MetaTransactionExecuted",
      "type": "event"
    },
    {
      "inputs": [],
      "name": "ERC712_VERSION",
      "outputs": [
        {
          "internalType": "string",
          "name": "",
          "type": "string"
        }
      ],
      "stateMutability": "view",
      "type": "function"
    },
    {
      "inputs": [
        {
          "internalType": "address",
          "name": "userAddress",
          "type": "address"
        },
        {
          "internalType": "bytes",
          "name": "functionSignature",
          "type": "bytes"
        },
        {
          "internalType": "bytes32",
          "name": "sigR",
          "type": "bytes32"
        },
        {
          "internalType": "bytes32",
          "name": "sigS",
          "type": "bytes32"
        },
        {
          "internalType": "uint8",
          "name": "sigV",
          "type": "uint8"
        }
      ],
      "name": "executeMetaTransaction",
      "outputs": [
        {
          "internalType": "bytes",
          "name": "",
          "type": "bytes"
        }
      ],
      "stateMutability": "payable",
      "type": "function"
    },
    {
      "inputs": [],
      "name": "getChainId",
      "outputs": [
        {
          "internalType": "uint256",
          "name": "",
          "type": "uint256"
        }
      ],
      "stateMutability": "view",
      "type": "function"
    },
    {
      "inputs": [],
      "name": "getDomainSeperator",
      "outputs": [
        {
          "internalType": "bytes32",
          "name": "",
          "type": "bytes32"
        }
      ],
      "stateMutability": "view",
      "type": "function"
    },
    {
      "inputs": [
        {
          "internalType": "address",
          "name": "user",
          "type": "address"
        }
      ],
      "name": "getNonce",
      "outputs": [
        {
          "internalType": "uint256",
          "name": "nonce",
          "type": "uint256"
        }
      ],
      "stateMutability": "view",
      "type": "function"
    }
  ],
  "bytecode": "0x60806040526000805460ff1916905534801561001a57600080fd5b5061097d8061002a6000396000f3fe60806040526004361061005a5760003560e01c806320379ee51161004357806320379ee5146100d15780632d0335ab146100f05780633408e4701461013357600080fd5b80630c53c51c1461005f5780630f7e597014610088575b600080fd5b61007261006d36600461065d565b610146565b60405161007f9190610853565b60405180910390f35b34801561009457600080fd5b506100726040518060400160405280600181526020017f310000000000000000000000000000000000000000000000000000000000000081525081565b3480156100dd57600080fd5b506001545b60405190815260200161007f565b3480156100fc57600080fd5b506100e261010b366004610642565b73ffffffffffffffffffffffffffffffffffffffff1660009081526002602052604090205490565b34801561013f57600080fd5b50466100e2565b604080516060818101835273ffffffffffffffffffffffffffffffffffffffff88166000818152600260209081529085902054845283015291810186905261019187828787876103d7565b610222576040517f08c379a000000000000000000000000000000000000000000000000000000000815260206004820152602160248201527f5369676e657220616e64207369676e617475726520646f206e6f74206d61746360448201527f680000000000000000000000000000000000000000000000000000000000000060648201526084015b60405180910390fd5b73ffffffffffffffffffffffffffffffffffffffff8716600090815260026020526040902054610253906001610520565b73ffffffffffffffffffffffffffffffffffffffff88166000908152600260205260409081902091909155517f5845892132946850460bff5a0083f71031bc5bf9aadcd40f1de79423eac9b10b906102b090899033908a90610811565b60405180910390a16000803073ffffffffffffffffffffffffffffffffffffffff16888a6040516020016102e59291906107c7565b604080517fffffffffffffffffffffffffffffffffffffffffffffffffffffffffffffffe08184030181529082905261031d916107ab565b6000604051808303816000865af19150503d806000811461035a576040519150601f19603f3d011682016040523d82523d6000602084013e61035f565b606091505b5091509150816103cb576040517f08c379a000000000000000000000000000000000000000000000000000000000815260206004820152601c60248201527f46756e6374696f6e2063616c6c206e6f74207375636365737366756c000000006044820152606401610219565b98975050505050505050565b600073ffffffffffffffffffffffffffffffffffffffff861661047c576040517f08c379a000000000000000000000000000000000000000000000000000000000815260206004820152602560248201527f4e61746976654d6574615472616e73616374696f6e3a20494e56414c49445f5360448201527f49474e45520000000000000000000000000000000000000000000000000000006064820152608401610219565b600161048f61048a87610533565b6105bd565b6040805160008152602081018083529290925260ff851690820152606081018690526080810185905260a0016020604051602081039080840390855afa1580156104dd573d6000803e3d6000fd5b5050506020604051035173ffffffffffffffffffffffffffffffffffffffff168673ffffffffffffffffffffffffffffffffffffffff1614905095945050505050565b600061052c8284610866565b9392505050565b600060405180608001604052806043815260200161090560439139805160209182012083518483015160408087015180519086012090516105a09501938452602084019290925273ffffffffffffffffffffffffffffffffffffffff166040830152606082015260800190565b604051602081830303815290604052805190602001209050919050565b60006105c860015490565b6040517f190100000000000000000000000000000000000000000000000000000000000060208201526022810191909152604281018390526062016105a0565b803573ffffffffffffffffffffffffffffffffffffffff8116811461062c57600080fd5b919050565b803560ff8116811461062c57600080fd5b60006020828403121561065457600080fd5b61052c82610608565b600080600080600060a0868803121561067557600080fd5b61067e86610608565b9450602086013567ffffffffffffffff8082111561069b57600080fd5b818801915088601f8301126106af57600080fd5b8135818111156106c1576106c16108d5565b604051601f82017fffffffffffffffffffffffffffffffffffffffffffffffffffffffffffffffe0908116603f01168101908382118183101715610707576107076108d5565b816040528281528b602084870101111561072057600080fd5b826020860160208301376000602084830101528098505050505050604086013592506060860135915061075560808701610631565b90509295509295909350565b600081518084526107798160208601602086016108a5565b601f017fffffffffffffffffffffffffffffffffffffffffffffffffffffffffffffffe0169290920160200192915050565b600082516107bd8184602087016108a5565b9190910192915050565b600083516107d98184602088016108a5565b60609390931b7fffffffffffffffffffffffffffffffffffffffff000000000000000000000000169190920190815260140192915050565b600073ffffffffffffffffffffffffffffffffffffffff80861683528085166020840152506060604083015261084a6060830184610761565b95945050505050565b60208152600061052c6020830184610761565b600082198211156108a0577f4e487b7100000000000000000000000000000000000000000000000000000000600052601160045260246000fd5b500190565b60005b838110156108c05781810151838201526020016108a8565b838111156108cf576000848401525b50505050565b7f4e487b7100000000000000000000000000000000000000000000000000000000600052604160045260246000fdfe4d6574615472616e73616374696f6e2875696e74323536206e6f6e63652c616464726573732066726f6d2c62797465732066756e6374696f6e5369676e617475726529a26469706673582212206240a3cebfa6a3a6cfa296f6da6a3b9b67b6c972a1e27ea2bb71add2e9525ca964736f6c63430008070033",
  "linkReferences": {},
  "deployedLinkReferences": {}
}