{
  "_format": "hh-sol-artifact-1",
  "contractName": "MIRS",
  "sourceName": "contracts/MIRS.sol",
  "abi": [
    {
      "inputs": [
        {
          "internalType": "address",
          "name": "_citizenshipAddress",
          "type": "address"
        }
      ],
      "stateMutability": "nonpayable",
      "type": "constructor"
    },
    {
      "anonymous": false,
      "inputs": [
        {
          "indexed": true,
          "internalType": "address",
          "name": "owner",
          "type": "address"
        },
        {
          "indexed": true,
          "internalType": "address",
          "name": "approved",
          "type": "address"
        },
        {
          "indexed": true,
          "internalType": "uint256",
          "name": "tokenId",
          "type": "uint256"
        }
      ],
      "name": "Approval",
      "type": "event"
    },
    {
      "anonymous": false,
      "inputs": [
        {
          "indexed": true,
          "internalType": "address",
          "name": "owner",
          "type": "address"
        },
        {
          "indexed": true,
          "internalType": "address",
          "name": "operator",
          "type": "address"
        },
        {
          "indexed": false,
          "internalType": "bool",
          "name": "approved",
          "type": "bool"
        }
      ],
      "name": "ApprovalForAll",
      "type": "event"
    },
    {
      "anonymous": false,
      "inputs": [
        {
          "indexed": false,
          "internalType": "string",
          "name": "newBaseURI",
          "type": "string"
        }
      ],
      "name": "BaseTokenURIUpdated",
      "type": "event"
    },
    {
      "anonymous": false,
      "inputs": [
        {
          "indexed": true,
          "internalType": "address",
          "name": "to",
          "type": "address"
        },
        {
          "indexed": true,
          "internalType": "uint256",
          "name": "id",
          "type": "uint256"
        },
        {
          "indexed": false,
          "internalType": "uint256",
          "name": "neighborhood",
          "type": "uint256"
        },
        {
          "indexed": false,
          "internalType": "uint256",
          "name": "macroBuilding",
          "type": "uint256"
        },
        {
          "indexed": false,
          "internalType": "uint256",
          "name": "cliffCity",
          "type": "uint256"
        }
      ],
      "name": "MIRSCreated",
      "type": "event"
    },
    {
      "anonymous": false,
      "inputs": [
        {
          "indexed": false,
          "internalType": "uint256",
          "name": "newSupply",
          "type": "uint256"
        }
      ],
      "name": "MIRSSupplyUpdated",
      "type": "event"
    },
    {
      "anonymous": false,
      "inputs": [
        {
          "indexed": false,
          "internalType": "address",
          "name": "userAddress",
          "type": "address"
        },
        {
          "indexed": false,
          "internalType": "address payable",
          "name": "relayerAddress",
          "type": "address"
        },
        {
          "indexed": false,
          "internalType": "bytes",
          "name": "functionSignature",
          "type": "bytes"
        }
      ],
      "name": "MetaTransactionExecuted",
      "type": "event"
    },
    {
      "anonymous": false,
      "inputs": [
        {
          "indexed": true,
          "internalType": "bytes32",
          "name": "role",
          "type": "bytes32"
        },
        {
          "indexed": true,
          "internalType": "bytes32",
          "name": "previousAdminRole",
          "type": "bytes32"
        },
        {
          "indexed": true,
          "internalType": "bytes32",
          "name": "newAdminRole",
          "type": "bytes32"
        }
      ],
      "name": "RoleAdminChanged",
      "type": "event"
    },
    {
      "anonymous": false,
      "inputs": [
        {
          "indexed": true,
          "internalType": "bytes32",
          "name": "role",
          "type": "bytes32"
        },
        {
          "indexed": true,
          "internalType": "address",
          "name": "account",
          "type": "address"
        },
        {
          "indexed": true,
          "internalType": "address",
          "name": "sender",
          "type": "address"
        }
      ],
      "name": "RoleGranted",
      "type": "event"
    },
    {
      "anonymous": false,
      "inputs": [
        {
          "indexed": true,
          "internalType": "bytes32",
          "name": "role",
          "type": "bytes32"
        },
        {
          "indexed": true,
          "internalType": "address",
          "name": "account",
          "type": "address"
        },
        {
          "indexed": true,
          "internalType": "address",
          "name": "sender",
          "type": "address"
        }
      ],
      "name": "RoleRevoked",
      "type": "event"
    },
    {
      "anonymous": false,
      "inputs": [
        {
          "indexed": true,
          "internalType": "address",
          "name": "from",
          "type": "address"
        },
        {
          "indexed": true,
          "internalType": "address",
          "name": "to",
          "type": "address"
        },
        {
          "indexed": true,
          "internalType": "uint256",
          "name": "tokenId",
          "type": "uint256"
        }
      ],
      "name": "Transfer",
      "type": "event"
    },
    {
      "inputs": [],
      "name": "DEFAULT_ADMIN_ROLE",
      "outputs": [
        {
          "internalType": "bytes32",
          "name": "",
          "type": "bytes32"
        }
      ],
      "stateMutability": "view",
      "type": "function"
    },
    {
      "inputs": [],
      "name": "ERC712_VERSION",
      "outputs": [
        {
          "internalType": "string",
          "name": "",
          "type": "string"
        }
      ],
      "stateMutability": "view",
      "type": "function"
    },
    {
      "inputs": [],
      "name": "MINTER_ROLE",
      "outputs": [
        {
          "internalType": "bytes32",
          "name": "",
          "type": "bytes32"
        }
      ],
      "stateMutability": "view",
      "type": "function"
    },
    {
      "inputs": [
        {
          "internalType": "address",
          "name": "to",
          "type": "address"
        },
        {
          "internalType": "uint256",
          "name": "tokenId",
          "type": "uint256"
        }
      ],
      "name": "approve",
      "outputs": [],
      "stateMutability": "nonpayable",
      "type": "function"
    },
    {
      "inputs": [
        {
          "internalType": "address",
          "name": "owner",
          "type": "address"
        }
      ],
      "name": "balanceOf",
      "outputs": [
        {
          "internalType": "uint256",
          "name": "",
          "type": "uint256"
        }
      ],
      "stateMutability": "view",
      "type": "function"
    },
    {
      "inputs": [],
      "name": "baseTokenURI",
      "outputs": [
        {
          "internalType": "string",
          "name": "",
          "type": "string"
        }
      ],
      "stateMutability": "view",
      "type": "function"
    },
    {
      "inputs": [
        {
          "internalType": "address",
          "name": "_to",
          "type": "address"
        },
        {
          "internalType": "uint256",
          "name": "_id",
          "type": "uint256"
        }
      ],
      "name": "canMint",
      "outputs": [
        {
          "internalType": "bool",
          "name": "",
          "type": "bool"
        }
      ],
      "stateMutability": "view",
      "type": "function"
    },
    {
      "inputs": [
        {
          "internalType": "string",
          "name": "_baseURI",
          "type": "string"
        }
      ],
      "name": "changeBaseTokenURI",
      "outputs": [],
      "stateMutability": "nonpayable",
      "type": "function"
    },
    {
      "inputs": [
        {
          "internalType": "address",
          "name": "userAddress",
          "type": "address"
        },
        {
          "internalType": "bytes",
          "name": "functionSignature",
          "type": "bytes"
        },
        {
          "internalType": "bytes32",
          "name": "sigR",
          "type": "bytes32"
        },
        {
          "internalType": "bytes32",
          "name": "sigS",
          "type": "bytes32"
        },
        {
          "internalType": "uint8",
          "name": "sigV",
          "type": "uint8"
        }
      ],
      "name": "executeMetaTransaction",
      "outputs": [
        {
          "internalType": "bytes",
          "name": "",
          "type": "bytes"
        }
      ],
      "stateMutability": "payable",
      "type": "function"
    },
    {
      "inputs": [
        {
          "internalType": "uint256",
          "name": "tokenId",
          "type": "uint256"
        }
      ],
      "name": "getApproved",
      "outputs": [
        {
          "internalType": "address",
          "name": "",
          "type": "address"
        }
      ],
      "stateMutability": "view",
      "type": "function"
    },
    {
      "inputs": [],
      "name": "getChainId",
      "outputs": [
        {
          "internalType": "uint256",
          "name": "",
          "type": "uint256"
        }
      ],
      "stateMutability": "view",
      "type": "function"
    },
    {
      "inputs": [],
      "name": "getDomainSeperator",
      "outputs": [
        {
          "internalType": "bytes32",
          "name": "",
          "type": "bytes32"
        }
      ],
      "stateMutability": "view",
      "type": "function"
    },
    {
      "inputs": [
        {
          "internalType": "uint256",
          "name": "_tokenId",
          "type": "uint256"
        }
      ],
      "name": "getMetadata",
      "outputs": [
        {
          "components": [
            {
              "internalType": "uint256",
              "name": "neighborhood",
              "type": "uint256"
            },
            {
              "internalType": "uint256",
              "name": "macroBuilding",
              "type": "uint256"
            },
            {
              "internalType": "uint256",
              "name": "cliffCity",
              "type": "uint256"
            }
          ],
          "internalType": "struct MIRS.MIRSmetadata",
          "name": "",
          "type": "tuple"
        }
      ],
      "stateMutability": "view",
      "type": "function"
    },
    {
      "inputs": [],
      "name": "getMirsSupply",
      "outputs": [
        {
          "internalType": "uint256",
          "name": "",
          "type": "uint256"
        }
      ],
      "stateMutability": "view",
      "type": "function"
    },
    {
      "inputs": [
        {
          "internalType": "address",
          "name": "user",
          "type": "address"
        }
      ],
      "name": "getNonce",
      "outputs": [
        {
          "internalType": "uint256",
          "name": "nonce",
          "type": "uint256"
        }
      ],
      "stateMutability": "view",
      "type": "function"
    },
    {
      "inputs": [
        {
          "internalType": "bytes32",
          "name": "role",
          "type": "bytes32"
        }
      ],
      "name": "getRoleAdmin",
      "outputs": [
        {
          "internalType": "bytes32",
          "name": "",
          "type": "bytes32"
        }
      ],
      "stateMutability": "view",
      "type": "function"
    },
    {
      "inputs": [
        {
          "internalType": "bytes32",
          "name": "role",
          "type": "bytes32"
        },
        {
          "internalType": "uint256",
          "name": "index",
          "type": "uint256"
        }
      ],
      "name": "getRoleMember",
      "outputs": [
        {
          "internalType": "address",
          "name": "",
          "type": "address"
        }
      ],
      "stateMutability": "view",
      "type": "function"
    },
    {
      "inputs": [
        {
          "internalType": "bytes32",
          "name": "role",
          "type": "bytes32"
        }
      ],
      "name": "getRoleMemberCount",
      "outputs": [
        {
          "internalType": "uint256",
          "name": "",
          "type": "uint256"
        }
      ],
      "stateMutability": "view",
      "type": "function"
    },
    {
      "inputs": [
        {
          "internalType": "bytes32",
          "name": "role",
          "type": "bytes32"
        },
        {
          "internalType": "address",
          "name": "account",
          "type": "address"
        }
      ],
      "name": "grantRole",
      "outputs": [],
      "stateMutability": "nonpayable",
      "type": "function"
    },
    {
      "inputs": [
        {
          "internalType": "bytes32",
          "name": "role",
          "type": "bytes32"
        },
        {
          "internalType": "address",
          "name": "account",
          "type": "address"
        }
      ],
      "name": "hasRole",
      "outputs": [
        {
          "internalType": "bool",
          "name": "",
          "type": "bool"
        }
      ],
      "stateMutability": "view",
      "type": "function"
    },
    {
      "inputs": [
        {
          "internalType": "address",
          "name": "owner",
          "type": "address"
        },
        {
          "internalType": "address",
          "name": "operator",
          "type": "address"
        }
      ],
      "name": "isApprovedForAll",
      "outputs": [
        {
          "internalType": "bool",
          "name": "",
          "type": "bool"
        }
      ],
      "stateMutability": "view",
      "type": "function"
    },
    {
      "inputs": [
        {
          "internalType": "uint256",
          "name": "",
          "type": "uint256"
        }
      ],
      "name": "metadata",
      "outputs": [
        {
          "internalType": "uint256",
          "name": "neighborhood",
          "type": "uint256"
        },
        {
          "internalType": "uint256",
          "name": "macroBuilding",
          "type": "uint256"
        },
        {
          "internalType": "uint256",
          "name": "cliffCity",
          "type": "uint256"
        }
      ],
      "stateMutability": "view",
      "type": "function"
    },
    {
      "inputs": [
        {
          "internalType": "address",
          "name": "_to",
          "type": "address"
        },
        {
          "internalType": "uint256",
          "name": "_id",
          "type": "uint256"
        },
        {
          "internalType": "uint256",
          "name": "_neighborhood",
          "type": "uint256"
        },
        {
          "internalType": "uint256",
          "name": "_macroBuilding",
          "type": "uint256"
        },
        {
          "internalType": "uint256",
          "name": "_cliffCity",
          "type": "uint256"
        }
      ],
      "name": "mintTo",
      "outputs": [],
      "stateMutability": "nonpayable",
      "type": "function"
    },
    {
      "inputs": [],
      "name": "name",
      "outputs": [
        {
          "internalType": "string",
          "name": "",
          "type": "string"
        }
      ],
      "stateMutability": "view",
      "type": "function"
    },
    {
      "inputs": [
        {
          "internalType": "uint256",
          "name": "tokenId",
          "type": "uint256"
        }
      ],
      "name": "ownerOf",
      "outputs": [
        {
          "internalType": "address",
          "name": "",
          "type": "address"
        }
      ],
      "stateMutability": "view",
      "type": "function"
    },
    {
      "inputs": [
        {
          "internalType": "bytes32",
          "name": "role",
          "type": "bytes32"
        },
        {
          "internalType": "address",
          "name": "account",
          "type": "address"
        }
      ],
      "name": "renounceRole",
      "outputs": [],
      "stateMutability": "nonpayable",
      "type": "function"
    },
    {
      "inputs": [
        {
          "internalType": "bytes32",
          "name": "role",
          "type": "bytes32"
        },
        {
          "internalType": "address",
          "name": "account",
          "type": "address"
        }
      ],
      "name": "revokeRole",
      "outputs": [],
      "stateMutability": "nonpayable",
      "type": "function"
    },
    {
      "inputs": [
        {
          "internalType": "address",
          "name": "from",
          "type": "address"
        },
        {
          "internalType": "address",
          "name": "to",
          "type": "address"
        },
        {
          "internalType": "uint256",
          "name": "tokenId",
          "type": "uint256"
        }
      ],
      "name": "safeTransferFrom",
      "outputs": [],
      "stateMutability": "nonpayable",
      "type": "function"
    },
    {
      "inputs": [
        {
          "internalType": "address",
          "name": "from",
          "type": "address"
        },
        {
          "internalType": "address",
          "name": "to",
          "type": "address"
        },
        {
          "internalType": "uint256",
          "name": "tokenId",
          "type": "uint256"
        },
        {
          "internalType": "bytes",
          "name": "_data",
          "type": "bytes"
        }
      ],
      "name": "safeTransferFrom",
      "outputs": [],
      "stateMutability": "nonpayable",
      "type": "function"
    },
    {
      "inputs": [
        {
          "internalType": "address",
          "name": "operator",
          "type": "address"
        },
        {
          "internalType": "bool",
          "name": "approved",
          "type": "bool"
        }
      ],
      "name": "setApprovalForAll",
      "outputs": [],
      "stateMutability": "nonpayable",
      "type": "function"
    },
    {
      "inputs": [
        {
          "internalType": "bytes4",
          "name": "interfaceId",
          "type": "bytes4"
        }
      ],
      "name": "supportsInterface",
      "outputs": [
        {
          "internalType": "bool",
          "name": "",
          "type": "bool"
        }
      ],
      "stateMutability": "view",
      "type": "function"
    },
    {
      "inputs": [],
      "name": "symbol",
      "outputs": [
        {
          "internalType": "string",
          "name": "",
          "type": "string"
        }
      ],
      "stateMutability": "view",
      "type": "function"
    },
    {
      "inputs": [
        {
          "internalType": "uint256",
          "name": "index",
          "type": "uint256"
        }
      ],
      "name": "tokenByIndex",
      "outputs": [
        {
          "internalType": "uint256",
          "name": "",
          "type": "uint256"
        }
      ],
      "stateMutability": "view",
      "type": "function"
    },
    {
      "inputs": [
        {
          "internalType": "address",
          "name": "owner",
          "type": "address"
        },
        {
          "internalType": "uint256",
          "name": "index",
          "type": "uint256"
        }
      ],
      "name": "tokenOfOwnerByIndex",
      "outputs": [
        {
          "internalType": "uint256",
          "name": "",
          "type": "uint256"
        }
      ],
      "stateMutability": "view",
      "type": "function"
    },
    {
      "inputs": [
        {
          "internalType": "uint256",
          "name": "_tokenId",
          "type": "uint256"
        }
      ],
      "name": "tokenURI",
      "outputs": [
        {
          "internalType": "string",
          "name": "",
          "type": "string"
        }
      ],
      "stateMutability": "view",
      "type": "function"
    },
    {
      "inputs": [],
      "name": "totalSupply",
      "outputs": [
        {
          "internalType": "uint256",
          "name": "",
          "type": "uint256"
        }
      ],
      "stateMutability": "view",
      "type": "function"
    },
    {
      "inputs": [
        {
          "internalType": "address",
          "name": "from",
          "type": "address"
        },
        {
          "internalType": "address",
          "name": "to",
          "type": "address"
        },
        {
          "internalType": "uint256",
          "name": "tokenId",
          "type": "uint256"
        }
      ],
      "name": "transferFrom",
      "outputs": [],
      "stateMutability": "nonpayable",
      "type": "function"
    },
    {
      "inputs": [
        {
          "internalType": "uint256",
          "name": "_mirsSupply",
          "type": "uint256"
        }
      ],
      "name": "updateMirsSupply",
      "outputs": [],
      "stateMutability": "nonpayable",
      "type": "function"
    }
  ],
  "bytecode": "0x600a805460ff191690556107d0600f5560e060405260246080818152906200436460a03980516200003991601191602090910190620003a8565b503480156200004757600080fd5b50604051620043d7380380620043d78339810160408190526200006a916200044e565b6040805180820182526004808252634d49525360e01b60208084018281528551808701909652928552840152815191929183918391620000ad91600091620003a8565b508051620000c3906001906020840190620003a8565b505050620000d7826200013960201b60201c565b50620000e790506000336200019d565b620001137f9f2df0fed2c77648de5860a4cc508cd0818c85b8b8a1ab4ceeef8d981c8956a6336200019d565b601080546001600160a01b0319166001600160a01b0392909216919091179055620004bd565b600a5460ff1615620001825760405162461bcd60e51b815260206004820152600e60248201526d185b1c9958591e481a5b9a5d195960921b604482015260640160405180910390fd5b6200018d81620001ad565b50600a805460ff19166001179055565b620001a982826200024f565b5050565b6040518060800160405280604f815260200162004388604f9139805160209182012082519282019290922060408051808201825260018152603160f81b90840152805180840194909452838101919091527fc89efdaa54c0f20c7adf612882df0950f5a951637e0307cdcb4c672f298b8bc660608401523060808401524660a0808501919091528151808503909101815260c090930190528151910120600b55565b6200026682826200029260201b62001b2d1760201c565b6000828152600e602090815260409091206200028d91839062001c2162000336821b17901c565b505050565b6000828152600d602090815260408083206001600160a01b038516845290915290205460ff16620001a9576000828152600d602090815260408083206001600160a01b03851684529091529020805460ff19166001179055620002f23390565b6001600160a01b0316816001600160a01b0316837f2f8788117e7eff1d82e926ec794901d17c78024a50270940304540a733656f0d60405160405180910390a45050565b60006200034d836001600160a01b03841662000356565b90505b92915050565b60008181526001830160205260408120546200039f5750815460018181018455600084815260208082209093018490558454848252828601909352604090209190915562000350565b50600062000350565b828054620003b69062000480565b90600052602060002090601f016020900481019282620003da576000855562000425565b82601f10620003f557805160ff191683800117855562000425565b8280016001018555821562000425579182015b828111156200042557825182559160200191906001019062000408565b506200043392915062000437565b5090565b5b8082111562000433576000815560010162000438565b6000602082840312156200046157600080fd5b81516001600160a01b03811681146200047957600080fd5b9392505050565b600181811c908216806200049557607f821691505b60208210811415620004b757634e487b7160e01b600052602260045260246000fd5b50919050565b613e9780620004cd6000396000f3fe6080604052600436106102855760003560e01c806370a0823111610153578063b88d4fde116100cb578063d547741f1161007f578063e3684e3911610064578063e3684e391461079b578063e40e97a7146107f2578063e985e9c51461081257600080fd5b8063d547741f14610766578063d547cfb71461078657600080fd5b8063c87b56dd116100b0578063c87b56dd146106f2578063ca15c87314610712578063d53913931461073257600080fd5b8063b88d4fde146106b2578063b8cb3b48146106d257600080fd5b806395d89b4111610122578063a22cb46511610107578063a22cb4651461063b578063a574cea41461065b578063b22434b71461069d57600080fd5b806395d89b4114610611578063a217fddf1461062657600080fd5b806370a082311461055e5780637748127d1461057e5780639010d07c1461059e57806391d14854146105be57600080fd5b806323b872dd116102015780633408e470116101b557806342842e0e1161019a57806342842e0e146104fe5780634f6ccce71461051e5780636352211e1461053e57600080fd5b80633408e470146104cb57806336568abe146104de57600080fd5b80632d0335ab116101e65780632d0335ab146104485780632f2ff15d1461048b5780632f745c59146104ab57600080fd5b806323b872dd146103f8578063248a9ca31461041857600080fd5b80630c53c51c116102585780630f7e59701161023d5780630f7e59701461037b57806318160ddd146103c457806320379ee5146103e357600080fd5b80630c53c51c146103485780630d5e34a41461035b57600080fd5b806301ffc9a71461028a57806306fdde03146102bf578063081812fc146102e1578063095ea7b314610326575b600080fd5b34801561029657600080fd5b506102aa6102a53660046138d8565b610868565b60405190151581526020015b60405180910390f35b3480156102cb57600080fd5b506102d46108c4565b6040516102b69190613b5f565b3480156102ed57600080fd5b506103016102fc36600461387a565b610956565b60405173ffffffffffffffffffffffffffffffffffffffff90911681526020016102b6565b34801561033257600080fd5b506103466103413660046137f1565b610a35565b005b6102d4610356366004613775565b610bc2565b34801561036757600080fd5b506102aa6103763660046137f1565b610e4e565b34801561038757600080fd5b506102d46040518060400160405280600181526020017f310000000000000000000000000000000000000000000000000000000000000081525081565b3480156103d057600080fd5b506008545b6040519081526020016102b6565b3480156103ef57600080fd5b50600b546103d5565b34801561040457600080fd5b5061034661041336600461369a565b611275565b34801561042457600080fd5b506103d561043336600461387a565b6000908152600d602052604090206001015490565b34801561045457600080fd5b506103d561046336600461364c565b73ffffffffffffffffffffffffffffffffffffffff166000908152600c602052604090205490565b34801561049757600080fd5b506103466104a6366004613893565b611316565b3480156104b757600080fd5b506103d56104c63660046137f1565b61133c565b3480156104d757600080fd5b50466103d5565b3480156104ea57600080fd5b506103466104f9366004613893565b61140b565b34801561050a57600080fd5b5061034661051936600461369a565b6114be565b34801561052a57600080fd5b506103d561053936600461387a565b6114d9565b34801561054a57600080fd5b5061030161055936600461387a565b611597565b34801561056a57600080fd5b506103d561057936600461364c565b611649565b34801561058a57600080fd5b5061034661059936600461387a565b611717565b3480156105aa57600080fd5b506103016105b93660046138b6565b6117f4565b3480156105ca57600080fd5b506102aa6105d9366004613893565b6000918252600d6020908152604080842073ffffffffffffffffffffffffffffffffffffffff93909316845291905290205460ff1690565b34801561061d57600080fd5b506102d4611813565b34801561063257600080fd5b506103d5600081565b34801561064757600080fd5b5061034661065636600461373e565b611822565b34801561066757600080fd5b5061067b61067636600461387a565b61182d565b60408051825181526020808401519082015291810151908201526060016102b6565b3480156106a957600080fd5b50600f546103d5565b3480156106be57600080fd5b506103466106cd3660046136d6565b61188a565b3480156106de57600080fd5b506103466106ed36600461381b565b611932565b3480156106fe57600080fd5b506102d461070d36600461387a565b611a58565b34801561071e57600080fd5b506103d561072d36600461387a565b611a92565b34801561073e57600080fd5b506103d57f9f2df0fed2c77648de5860a4cc508cd0818c85b8b8a1ab4ceeef8d981c8956a681565b34801561077257600080fd5b50610346610781366004613893565b611aa9565b34801561079257600080fd5b506102d4611acf565b3480156107a757600080fd5b506107d76107b636600461387a565b60126020526000908152604090208054600182015460029092015490919083565b604080519384526020840192909252908201526060016102b6565b3480156107fe57600080fd5b5061034661080d366004613912565b611ade565b34801561081e57600080fd5b506102aa61082d366004613667565b73ffffffffffffffffffffffffffffffffffffffff918216600090815260056020908152604080832093909416825291909152205460ff1690565b60007fffffffff0000000000000000000000000000000000000000000000000000000082167f780e9d630000000000000000000000000000000000000000000000000000000014806108be57506108be82611c43565b92915050565b6060600080546108d390613c53565b80601f01602080910402602001604051908101604052809291908181526020018280546108ff90613c53565b801561094c5780601f106109215761010080835404028352916020019161094c565b820191906000526020600020905b81548152906001019060200180831161092f57829003601f168201915b5050505050905090565b60008181526002602052604081205473ffffffffffffffffffffffffffffffffffffffff16610a0c576040517f08c379a000000000000000000000000000000000000000000000000000000000815260206004820152602c60248201527f4552433732313a20617070726f76656420717565727920666f72206e6f6e657860448201527f697374656e7420746f6b656e000000000000000000000000000000000000000060648201526084015b60405180910390fd5b5060009081526004602052604090205473ffffffffffffffffffffffffffffffffffffffff1690565b6000610a4082611597565b90508073ffffffffffffffffffffffffffffffffffffffff168373ffffffffffffffffffffffffffffffffffffffff161415610afe576040517f08c379a000000000000000000000000000000000000000000000000000000000815260206004820152602160248201527f4552433732313a20617070726f76616c20746f2063757272656e74206f776e6560448201527f72000000000000000000000000000000000000000000000000000000000000006064820152608401610a03565b3373ffffffffffffffffffffffffffffffffffffffff82161480610b275750610b27813361082d565b610bb3576040517f08c379a000000000000000000000000000000000000000000000000000000000815260206004820152603860248201527f4552433732313a20617070726f76652063616c6c6572206973206e6f74206f7760448201527f6e6572206e6f7220617070726f76656420666f7220616c6c00000000000000006064820152608401610a03565b610bbd8383611c99565b505050565b604080516060818101835273ffffffffffffffffffffffffffffffffffffffff88166000818152600c602090815290859020548452830152918101869052610c0d8782878787611d39565b610c99576040517f08c379a000000000000000000000000000000000000000000000000000000000815260206004820152602160248201527f5369676e657220616e64207369676e617475726520646f206e6f74206d61746360448201527f68000000000000000000000000000000000000000000000000000000000000006064820152608401610a03565b73ffffffffffffffffffffffffffffffffffffffff87166000908152600c6020526040902054610cca906001611e82565b73ffffffffffffffffffffffffffffffffffffffff88166000908152600c60205260409081902091909155517f5845892132946850460bff5a0083f71031bc5bf9aadcd40f1de79423eac9b10b90610d2790899033908a90613ad4565b60405180910390a16000803073ffffffffffffffffffffffffffffffffffffffff16888a604051602001610d5c9291906139da565b604080517fffffffffffffffffffffffffffffffffffffffffffffffffffffffffffffffe081840301815290829052610d94916139be565b6000604051808303816000865af19150503d8060008114610dd1576040519150601f19603f3d011682016040523d82523d6000602084013e610dd6565b606091505b509150915081610e42576040517f08c379a000000000000000000000000000000000000000000000000000000000815260206004820152601c60248201527f46756e6374696f6e2063616c6c206e6f74207375636365737366756c000000006044820152606401610a03565b98975050505050505050565b600073ffffffffffffffffffffffffffffffffffffffff8316610ecd576040517f08c379a000000000000000000000000000000000000000000000000000000000815260206004820152601f60248201527f43616e6e6f74206d696e7420746f20746865206e756c6c2061646472657373006044820152606401610a03565b60008281526002602052604090205473ffffffffffffffffffffffffffffffffffffffff1615610f59576040517f08c379a000000000000000000000000000000000000000000000000000000000815260206004820152601460248201527f546f6b656e20616c7265616479206578697374730000000000000000000000006044820152606401610a03565b6010546040517f70a0823100000000000000000000000000000000000000000000000000000000815273ffffffffffffffffffffffffffffffffffffffff85811660048301529091169060009082906370a082319060240160206040518083038186803b158015610fc957600080fd5b505afa158015610fdd573d6000803e3d6000fd5b505050506040513d601f19601f82011682018060405250810190611001919061395b565b1161108e576040517f08c379a000000000000000000000000000000000000000000000000000000000815260206004820152602260248201527f5573657220646f6573206e6f74206861766520616e7920636974697a656e736860448201527f69700000000000000000000000000000000000000000000000000000000000006064820152608401610a03565b6040517f2f745c5900000000000000000000000000000000000000000000000000000000815273ffffffffffffffffffffffffffffffffffffffff85811660048301526000602483018190529190831690632f745c599060440160206040518083038186803b15801561110057600080fd5b505afa158015611114573d6000803e3d6000fd5b505050506040513d601f19601f82011682018060405250810190611138919061395b565b6040517f237229cd0000000000000000000000000000000000000000000000000000000081526004810182905290915073ffffffffffffffffffffffffffffffffffffffff83169063237229cd9060240160206040518083038186803b1580156111a157600080fd5b505afa1580156111b5573d6000803e3d6000fd5b505050506040513d601f19601f820116820180604052508101906111d9919061385d565b611265576040517f08c379a000000000000000000000000000000000000000000000000000000000815260206004820152602160248201527f55736572277320436974697a656e73686970206973206e6f7420656e61626c6560448201527f64000000000000000000000000000000000000000000000000000000000000006064820152608401610a03565b600f546008541095945050505050565b61127f3382611e8e565b61130b576040517f08c379a000000000000000000000000000000000000000000000000000000000815260206004820152603160248201527f4552433732313a207472616e736665722063616c6c6572206973206e6f74206f60448201527f776e6572206e6f7220617070726f7665640000000000000000000000000000006064820152608401610a03565b610bbd838383611ffe565b6000828152600d60205260409020600101546113328133612270565b610bbd8383612342565b600061134783611649565b82106113d5576040517f08c379a000000000000000000000000000000000000000000000000000000000815260206004820152602b60248201527f455243373231456e756d657261626c653a206f776e657220696e646578206f7560448201527f74206f6620626f756e64730000000000000000000000000000000000000000006064820152608401610a03565b5073ffffffffffffffffffffffffffffffffffffffff919091166000908152600660209081526040808320938352929052205490565b73ffffffffffffffffffffffffffffffffffffffff811633146114b0576040517f08c379a000000000000000000000000000000000000000000000000000000000815260206004820152602f60248201527f416363657373436f6e74726f6c3a2063616e206f6e6c792072656e6f756e636560448201527f20726f6c657320666f722073656c6600000000000000000000000000000000006064820152608401610a03565b6114ba8282612364565b5050565b610bbd8383836040518060200160405280600081525061188a565b60006114e460085490565b8210611572576040517f08c379a000000000000000000000000000000000000000000000000000000000815260206004820152602c60248201527f455243373231456e756d657261626c653a20676c6f62616c20696e646578206f60448201527f7574206f6620626f756e647300000000000000000000000000000000000000006064820152608401610a03565b6008828154811061158557611585613d81565b90600052602060002001549050919050565b60008181526002602052604081205473ffffffffffffffffffffffffffffffffffffffff16806108be576040517f08c379a000000000000000000000000000000000000000000000000000000000815260206004820152602960248201527f4552433732313a206f776e657220717565727920666f72206e6f6e657869737460448201527f656e7420746f6b656e00000000000000000000000000000000000000000000006064820152608401610a03565b600073ffffffffffffffffffffffffffffffffffffffff82166116ee576040517f08c379a000000000000000000000000000000000000000000000000000000000815260206004820152602a60248201527f4552433732313a2062616c616e636520717565727920666f7220746865207a6560448201527f726f2061646472657373000000000000000000000000000000000000000000006064820152608401610a03565b5073ffffffffffffffffffffffffffffffffffffffff1660009081526003602052604090205490565b60006117238133612270565b6008548210156117b757604080517f08c379a00000000000000000000000000000000000000000000000000000000081526020600482015260248101919091527f4e657720737570706c79206d7573742062652067726561746572206f7220657160448201527f75616c207468616e207468652063757272656e74204d49525320737570706c796064820152608401610a03565b600f8290556040518281527f0e1b87c397da8ae442cc1cb4a24f82ad45f02b722e7a5a1aa90c96f6249f1dce906020015b60405180910390a15050565b6000828152600e6020526040812061180c9083612386565b9392505050565b6060600180546108d390613c53565b6114ba338383612392565b61185160405180606001604052806000815260200160008152602001600081525090565b50600090815260126020908152604091829020825160608101845281548152600182015492810192909252600201549181019190915290565b6118943383611e8e565b611920576040517f08c379a000000000000000000000000000000000000000000000000000000000815260206004820152603160248201527f4552433732313a207472616e736665722063616c6c6572206973206e6f74206f60448201527f776e6572206e6f7220617070726f7665640000000000000000000000000000006064820152608401610a03565b61192c848484846124c0565b50505050565b7f9f2df0fed2c77648de5860a4cc508cd0818c85b8b8a1ab4ceeef8d981c8956a661195d8133612270565b6119678686610e4e565b6119cd576040517f08c379a000000000000000000000000000000000000000000000000000000000815260206004820152601b60248201527f43616e6e6f74206d696e7420746f2074686973206164647265737300000000006044820152606401610a03565b6000858152601260205260409020848155600181018490556002018290556119f58686612563565b6040805185815260208101859052908101839052859073ffffffffffffffffffffffffffffffffffffffff8816907f5ea8be7e7ca3bac6667e76b340b797c6fb15bf16c8805f99c6ad593bb5631e719060600160405180910390a3505050505050565b6060611a62611acf565b611a6b8361257d565b604051602001611a7c929190613a24565b6040516020818303038152906040529050919050565b6000818152600e602052604081206108be906126af565b6000828152600d6020526040902060010154611ac58133612270565b610bbd8383612364565b6060601180546108d390613c53565b6000611aea8133612270565b8151611afd9060119060208501906134d6565b507fe6e4cd5c2dc7d2c20519b41832cd550fd3ea1186bf299d108179bf71fb8e00e5826040516117e89190613b5f565b6000828152600d6020908152604080832073ffffffffffffffffffffffffffffffffffffffff8516845290915290205460ff166114ba576000828152600d6020908152604080832073ffffffffffffffffffffffffffffffffffffffff85168452909152902080547fffffffffffffffffffffffffffffffffffffffffffffffffffffffffffffff00166001179055611bc33390565b73ffffffffffffffffffffffffffffffffffffffff168173ffffffffffffffffffffffffffffffffffffffff16837f2f8788117e7eff1d82e926ec794901d17c78024a50270940304540a733656f0d60405160405180910390a45050565b600061180c8373ffffffffffffffffffffffffffffffffffffffff84166126b9565b60007fffffffff0000000000000000000000000000000000000000000000000000000082167f5a05180f0000000000000000000000000000000000000000000000000000000014806108be57506108be82612708565b600081815260046020526040902080547fffffffffffffffffffffffff00000000000000000000000000000000000000001673ffffffffffffffffffffffffffffffffffffffff84169081179091558190611cf382611597565b73ffffffffffffffffffffffffffffffffffffffff167f8c5be1e5ebec7d5bd14f71427d1e84f3dd0314c0f7b2291e5b200ac8c7c3b92560405160405180910390a45050565b600073ffffffffffffffffffffffffffffffffffffffff8616611dde576040517f08c379a000000000000000000000000000000000000000000000000000000000815260206004820152602560248201527f4e61746976654d6574615472616e73616374696f6e3a20494e56414c49445f5360448201527f49474e45520000000000000000000000000000000000000000000000000000006064820152608401610a03565b6001611df1611dec8761275e565b6127e8565b6040805160008152602081018083529290925260ff851690820152606081018690526080810185905260a0016020604051602081039080840390855afa158015611e3f573d6000803e3d6000fd5b5050506020604051035173ffffffffffffffffffffffffffffffffffffffff168673ffffffffffffffffffffffffffffffffffffffff1614905095945050505050565b600061180c8284613b72565b60008181526002602052604081205473ffffffffffffffffffffffffffffffffffffffff16611f3f576040517f08c379a000000000000000000000000000000000000000000000000000000000815260206004820152602c60248201527f4552433732313a206f70657261746f7220717565727920666f72206e6f6e657860448201527f697374656e7420746f6b656e00000000000000000000000000000000000000006064820152608401610a03565b6000611f4a83611597565b90508073ffffffffffffffffffffffffffffffffffffffff168473ffffffffffffffffffffffffffffffffffffffff161480611fb957508373ffffffffffffffffffffffffffffffffffffffff16611fa184610956565b73ffffffffffffffffffffffffffffffffffffffff16145b80611ff6575073ffffffffffffffffffffffffffffffffffffffff80821660009081526005602090815260408083209388168352929052205460ff165b949350505050565b8273ffffffffffffffffffffffffffffffffffffffff1661201e82611597565b73ffffffffffffffffffffffffffffffffffffffff16146120c1576040517f08c379a000000000000000000000000000000000000000000000000000000000815260206004820152602960248201527f4552433732313a207472616e73666572206f6620746f6b656e2074686174206960448201527f73206e6f74206f776e00000000000000000000000000000000000000000000006064820152608401610a03565b73ffffffffffffffffffffffffffffffffffffffff8216612163576040517f08c379a0000000000000000000000000000000000000000000000000000000008152602060048201526024808201527f4552433732313a207472616e7366657220746f20746865207a65726f2061646460448201527f72657373000000000000000000000000000000000000000000000000000000006064820152608401610a03565b61216e838383612833565b612179600082611c99565b73ffffffffffffffffffffffffffffffffffffffff831660009081526003602052604081208054600192906121af908490613bdb565b909155505073ffffffffffffffffffffffffffffffffffffffff821660009081526003602052604081208054600192906121ea908490613b72565b909155505060008181526002602052604080822080547fffffffffffffffffffffffff00000000000000000000000000000000000000001673ffffffffffffffffffffffffffffffffffffffff86811691821790925591518493918716917fddf252ad1be2c89b69c2b068fc378daa952ba7f163c4a11628f55a4df523b3ef91a4505050565b6000828152600d6020908152604080832073ffffffffffffffffffffffffffffffffffffffff8516845290915290205460ff166114ba576122c88173ffffffffffffffffffffffffffffffffffffffff166014612939565b6122d3836020612939565b6040516020016122e4929190613a53565b604080517fffffffffffffffffffffffffffffffffffffffffffffffffffffffffffffffe0818403018152908290527f08c379a0000000000000000000000000000000000000000000000000000000008252610a0391600401613b5f565b61234c8282611b2d565b6000828152600e60205260409020610bbd9082611c21565b61236e8282612b7c565b6000828152600e60205260409020610bbd9082612c37565b600061180c8383612c59565b8173ffffffffffffffffffffffffffffffffffffffff168373ffffffffffffffffffffffffffffffffffffffff161415612428576040517f08c379a000000000000000000000000000000000000000000000000000000000815260206004820152601960248201527f4552433732313a20617070726f766520746f2063616c6c6572000000000000006044820152606401610a03565b73ffffffffffffffffffffffffffffffffffffffff83811660008181526005602090815260408083209487168084529482529182902080547fffffffffffffffffffffffffffffffffffffffffffffffffffffffffffffff001686151590811790915591519182527f17307eab39ab6107e8899845ad3d59bd9653f200f220920489ca2b5937696c31910160405180910390a3505050565b6124cb848484611ffe565b6124d784848484612c83565b61192c576040517f08c379a000000000000000000000000000000000000000000000000000000000815260206004820152603260248201527f4552433732313a207472616e7366657220746f206e6f6e20455243373231526560448201527f63656976657220696d706c656d656e74657200000000000000000000000000006064820152608401610a03565b6114ba828260405180602001604052806000815250612e82565b6060816125bd57505060408051808201909152600181527f3000000000000000000000000000000000000000000000000000000000000000602082015290565b8160005b81156125e757806125d181613ca7565b91506125e09050600a83613b8a565b91506125c1565b60008167ffffffffffffffff81111561260257612602613db0565b6040519080825280601f01601f19166020018201604052801561262c576020820181803683370190505b5090505b8415611ff657612641600183613bdb565b915061264e600a86613ce0565b612659906030613b72565b60f81b81838151811061266e5761266e613d81565b60200101907effffffffffffffffffffffffffffffffffffffffffffffffffffffffffffff1916908160001a9053506126a8600a86613b8a565b9450612630565b60006108be825490565b6000818152600183016020526040812054612700575081546001818101845560008481526020808220909301849055845484825282860190935260409020919091556108be565b5060006108be565b60007fffffffff0000000000000000000000000000000000000000000000000000000082167f7965db0b0000000000000000000000000000000000000000000000000000000014806108be57506108be82612f25565b6000604051806080016040528060438152602001613e1f60439139805160209182012083518483015160408087015180519086012090516127cb9501938452602084019290925273ffffffffffffffffffffffffffffffffffffffff166040830152606082015260800190565b604051602081830303815290604052805190602001209050919050565b60006127f3600b5490565b6040517f190100000000000000000000000000000000000000000000000000000000000060208201526022810191909152604281018390526062016127cb565b73ffffffffffffffffffffffffffffffffffffffff831661289b5761289681600880546000838152600960205260408120829055600182018355919091527ff3f7a9fe364faab93b216da50a3214154f22a0a2b415b23a84c8169e8b636ee30155565b6128d8565b8173ffffffffffffffffffffffffffffffffffffffff168373ffffffffffffffffffffffffffffffffffffffff16146128d8576128d88382612f7b565b73ffffffffffffffffffffffffffffffffffffffff82166128fc57610bbd81613032565b8273ffffffffffffffffffffffffffffffffffffffff168273ffffffffffffffffffffffffffffffffffffffff1614610bbd57610bbd82826130e1565b60606000612948836002613b9e565b612953906002613b72565b67ffffffffffffffff81111561296b5761296b613db0565b6040519080825280601f01601f191660200182016040528015612995576020820181803683370190505b5090507f3000000000000000000000000000000000000000000000000000000000000000816000815181106129cc576129cc613d81565b60200101907effffffffffffffffffffffffffffffffffffffffffffffffffffffffffffff1916908160001a9053507f780000000000000000000000000000000000000000000000000000000000000081600181518110612a2f57612a2f613d81565b60200101907effffffffffffffffffffffffffffffffffffffffffffffffffffffffffffff1916908160001a9053506000612a6b846002613b9e565b612a76906001613b72565b90505b6001811115612b13577f303132333435363738396162636465660000000000000000000000000000000085600f1660108110612ab757612ab7613d81565b1a60f81b828281518110612acd57612acd613d81565b60200101907effffffffffffffffffffffffffffffffffffffffffffffffffffffffffffff1916908160001a90535060049490941c93612b0c81613c1e565b9050612a79565b50831561180c576040517f08c379a000000000000000000000000000000000000000000000000000000000815260206004820181905260248201527f537472696e67733a20686578206c656e67746820696e73756666696369656e746044820152606401610a03565b6000828152600d6020908152604080832073ffffffffffffffffffffffffffffffffffffffff8516845290915290205460ff16156114ba576000828152600d6020908152604080832073ffffffffffffffffffffffffffffffffffffffff8516808552925280832080547fffffffffffffffffffffffffffffffffffffffffffffffffffffffffffffff0016905551339285917ff6391f5c32d9c69d2a47ea670b442974b53935d1edc7fd64eb21e047a839171b9190a45050565b600061180c8373ffffffffffffffffffffffffffffffffffffffff8416613132565b6000826000018281548110612c7057612c70613d81565b9060005260206000200154905092915050565b600073ffffffffffffffffffffffffffffffffffffffff84163b15612e77576040517f150b7a0200000000000000000000000000000000000000000000000000000000815273ffffffffffffffffffffffffffffffffffffffff85169063150b7a0290612cfa903390899088908890600401613b16565b602060405180830381600087803b158015612d1457600080fd5b505af1925050508015612d62575060408051601f3d9081017fffffffffffffffffffffffffffffffffffffffffffffffffffffffffffffffe0168201909252612d5f918101906138f5565b60015b612e2c573d808015612d90576040519150601f19603f3d011682016040523d82523d6000602084013e612d95565b606091505b508051612e24576040517f08c379a000000000000000000000000000000000000000000000000000000000815260206004820152603260248201527f4552433732313a207472616e7366657220746f206e6f6e20455243373231526560448201527f63656976657220696d706c656d656e74657200000000000000000000000000006064820152608401610a03565b805181602001fd5b7fffffffff00000000000000000000000000000000000000000000000000000000167f150b7a0200000000000000000000000000000000000000000000000000000000149050611ff6565b506001949350505050565b612e8c8383613225565b612e996000848484612c83565b610bbd576040517f08c379a000000000000000000000000000000000000000000000000000000000815260206004820152603260248201527f4552433732313a207472616e7366657220746f206e6f6e20455243373231526560448201527f63656976657220696d706c656d656e74657200000000000000000000000000006064820152608401610a03565b60007fffffffff0000000000000000000000000000000000000000000000000000000082167f780e9d630000000000000000000000000000000000000000000000000000000014806108be57506108be826133f3565b60006001612f8884611649565b612f929190613bdb565b600083815260076020526040902054909150808214612ff25773ffffffffffffffffffffffffffffffffffffffff841660009081526006602090815260408083208584528252808320548484528184208190558352600790915290208190555b50600091825260076020908152604080842084905573ffffffffffffffffffffffffffffffffffffffff9094168352600681528383209183525290812055565b60085460009061304490600190613bdb565b6000838152600960205260408120546008805493945090928490811061306c5761306c613d81565b90600052602060002001549050806008838154811061308d5761308d613d81565b60009182526020808320909101929092558281526009909152604080822084905585825281205560088054806130c5576130c5613d52565b6001900381819060005260206000200160009055905550505050565b60006130ec83611649565b73ffffffffffffffffffffffffffffffffffffffff9093166000908152600660209081526040808320868452825280832085905593825260079052919091209190915550565b6000818152600183016020526040812054801561321b576000613156600183613bdb565b855490915060009061316a90600190613bdb565b90508181146131cf57600086600001828154811061318a5761318a613d81565b90600052602060002001549050808760000184815481106131ad576131ad613d81565b6000918252602080832090910192909255918252600188019052604090208390555b85548690806131e0576131e0613d52565b6001900381819060005260206000200160009055905585600101600086815260200190815260200160002060009055600193505050506108be565b60009150506108be565b73ffffffffffffffffffffffffffffffffffffffff82166132a2576040517f08c379a000000000000000000000000000000000000000000000000000000000815260206004820181905260248201527f4552433732313a206d696e7420746f20746865207a65726f20616464726573736044820152606401610a03565b60008181526002602052604090205473ffffffffffffffffffffffffffffffffffffffff161561332e576040517f08c379a000000000000000000000000000000000000000000000000000000000815260206004820152601c60248201527f4552433732313a20746f6b656e20616c7265616479206d696e746564000000006044820152606401610a03565b61333a60008383612833565b73ffffffffffffffffffffffffffffffffffffffff82166000908152600360205260408120805460019290613370908490613b72565b909155505060008181526002602052604080822080547fffffffffffffffffffffffff00000000000000000000000000000000000000001673ffffffffffffffffffffffffffffffffffffffff861690811790915590518392907fddf252ad1be2c89b69c2b068fc378daa952ba7f163c4a11628f55a4df523b3ef908290a45050565b60007fffffffff0000000000000000000000000000000000000000000000000000000082167f80ac58cd00000000000000000000000000000000000000000000000000000000148061348657507fffffffff0000000000000000000000000000000000000000000000000000000082167f5b5e139f00000000000000000000000000000000000000000000000000000000145b806108be57507f01ffc9a7000000000000000000000000000000000000000000000000000000007fffffffff000000000000000000000000000000000000000000000000000000008316146108be565b8280546134e290613c53565b90600052602060002090601f016020900481019282613504576000855561354a565b82601f1061351d57805160ff191683800117855561354a565b8280016001018555821561354a579182015b8281111561354a57825182559160200191906001019061352f565b5061355692915061355a565b5090565b5b80821115613556576000815560010161355b565b600067ffffffffffffffff8084111561358a5761358a613db0565b604051601f85017fffffffffffffffffffffffffffffffffffffffffffffffffffffffffffffffe0908116603f011681019082821181831017156135d0576135d0613db0565b816040528093508581528686860111156135e957600080fd5b858560208301376000602087830101525050509392505050565b803573ffffffffffffffffffffffffffffffffffffffff8116811461362757600080fd5b919050565b600082601f83011261363d57600080fd5b61180c8383356020850161356f565b60006020828403121561365e57600080fd5b61180c82613603565b6000806040838503121561367a57600080fd5b61368383613603565b915061369160208401613603565b90509250929050565b6000806000606084860312156136af57600080fd5b6136b884613603565b92506136c660208501613603565b9150604084013590509250925092565b600080600080608085870312156136ec57600080fd5b6136f585613603565b935061370360208601613603565b925060408501359150606085013567ffffffffffffffff81111561372657600080fd5b6137328782880161362c565b91505092959194509250565b6000806040838503121561375157600080fd5b61375a83613603565b9150602083013561376a81613ddf565b809150509250929050565b600080600080600060a0868803121561378d57600080fd5b61379686613603565b9450602086013567ffffffffffffffff8111156137b257600080fd5b6137be8882890161362c565b9450506040860135925060608601359150608086013560ff811681146137e357600080fd5b809150509295509295909350565b6000806040838503121561380457600080fd5b61380d83613603565b946020939093013593505050565b600080600080600060a0868803121561383357600080fd5b61383c86613603565b97602087013597506040870135966060810135965060800135945092505050565b60006020828403121561386f57600080fd5b815161180c81613ddf565b60006020828403121561388c57600080fd5b5035919050565b600080604083850312156138a657600080fd5b8235915061369160208401613603565b600080604083850312156138c957600080fd5b50508035926020909101359150565b6000602082840312156138ea57600080fd5b813561180c81613df0565b60006020828403121561390757600080fd5b815161180c81613df0565b60006020828403121561392457600080fd5b813567ffffffffffffffff81111561393b57600080fd5b8201601f8101841361394c57600080fd5b611ff68482356020840161356f565b60006020828403121561396d57600080fd5b5051919050565b6000815180845261398c816020860160208601613bf2565b601f017fffffffffffffffffffffffffffffffffffffffffffffffffffffffffffffffe0169290920160200192915050565b600082516139d0818460208701613bf2565b9190910192915050565b600083516139ec818460208801613bf2565b60609390931b7fffffffffffffffffffffffffffffffffffffffff000000000000000000000000169190920190815260140192915050565b60008351613a36818460208801613bf2565b835190830190613a4a818360208801613bf2565b01949350505050565b7f416363657373436f6e74726f6c3a206163636f756e7420000000000000000000815260008351613a8b816017850160208801613bf2565b7f206973206d697373696e6720726f6c65200000000000000000000000000000006017918401918201528351613ac8816028840160208801613bf2565b01602801949350505050565b600073ffffffffffffffffffffffffffffffffffffffff808616835280851660208401525060606040830152613b0d6060830184613974565b95945050505050565b600073ffffffffffffffffffffffffffffffffffffffff808716835280861660208401525083604083015260806060830152613b556080830184613974565b9695505050505050565b60208152600061180c6020830184613974565b60008219821115613b8557613b85613cf4565b500190565b600082613b9957613b99613d23565b500490565b6000817fffffffffffffffffffffffffffffffffffffffffffffffffffffffffffffffff0483118215151615613bd657613bd6613cf4565b500290565b600082821015613bed57613bed613cf4565b500390565b60005b83811015613c0d578181015183820152602001613bf5565b8381111561192c5750506000910152565b600081613c2d57613c2d613cf4565b507fffffffffffffffffffffffffffffffffffffffffffffffffffffffffffffffff0190565b600181811c90821680613c6757607f821691505b60208210811415613ca1577f4e487b7100000000000000000000000000000000000000000000000000000000600052602260045260246000fd5b50919050565b60007fffffffffffffffffffffffffffffffffffffffffffffffffffffffffffffffff821415613cd957613cd9613cf4565b5060010190565b600082613cef57613cef613d23565b500690565b7f4e487b7100000000000000000000000000000000000000000000000000000000600052601160045260246000fd5b7f4e487b7100000000000000000000000000000000000000000000000000000000600052601260045260246000fd5b7f4e487b7100000000000000000000000000000000000000000000000000000000600052603160045260246000fd5b7f4e487b7100000000000000000000000000000000000000000000000000000000600052603260045260246000fd5b7f4e487b7100000000000000000000000000000000000000000000000000000000600052604160045260246000fd5b8015158114613ded57600080fd5b50565b7fffffffff0000000000000000000000000000000000000000000000000000000081168114613ded57600080fdfe4d6574615472616e73616374696f6e2875696e74323536206e6f6e63652c616464726573732066726f6d2c62797465732066756e6374696f6e5369676e617475726529a2646970667358221220ba402f77d9d79c6dc24c7e40ce50ce7489c6c65ccbe8410cbd405d503fe12ac064736f6c63430008070033687474703a2f2f3134322e39332e3139352e3136393a333030312f6170692f6d6972732f454950373132446f6d61696e28737472696e67206e616d652c737472696e672076657273696f6e2c6164647265737320766572696679696e67436f6e74726163742c627974657333322073616c7429",
  "linkReferences": {},
  "deployedLinkReferences": {}
}