{
  "_format": "hh-sol-artifact-1",
  "contractName": "OntecoFactory",
  "sourceName": "contracts/OntecoFactory.sol",
  "abi": [
    {
      "inputs": [
        {
          "internalType": "address",
          "name": "_citizenshipAddress",
          "type": "address"
        }
      ],
      "stateMutability": "nonpayable",
      "type": "constructor"
    },
    {
      "anonymous": false,
      "inputs": [
        {
          "indexed": false,
          "internalType": "uint256",
          "name": "newSupply",
          "type": "uint256"
        }
      ],
      "name": "CitizenshipSupplyUpdated",
      "type": "event"
    },
    {
      "anonymous": false,
      "inputs": [
        {
          "indexed": true,
          "internalType": "bytes32",
          "name": "role",
          "type": "bytes32"
        },
        {
          "indexed": true,
          "internalType": "bytes32",
          "name": "previousAdminRole",
          "type": "bytes32"
        },
        {
          "indexed": true,
          "internalType": "bytes32",
          "name": "newAdminRole",
          "type": "bytes32"
        }
      ],
      "name": "RoleAdminChanged",
      "type": "event"
    },
    {
      "anonymous": false,
      "inputs": [
        {
          "indexed": true,
          "internalType": "bytes32",
          "name": "role",
          "type": "bytes32"
        },
        {
          "indexed": true,
          "internalType": "address",
          "name": "account",
          "type": "address"
        },
        {
          "indexed": true,
          "internalType": "address",
          "name": "sender",
          "type": "address"
        }
      ],
      "name": "RoleGranted",
      "type": "event"
    },
    {
      "anonymous": false,
      "inputs": [
        {
          "indexed": true,
          "internalType": "bytes32",
          "name": "role",
          "type": "bytes32"
        },
        {
          "indexed": true,
          "internalType": "address",
          "name": "account",
          "type": "address"
        },
        {
          "indexed": true,
          "internalType": "address",
          "name": "sender",
          "type": "address"
        }
      ],
      "name": "RoleRevoked",
      "type": "event"
    },
    {
      "anonymous": false,
      "inputs": [
        {
          "indexed": true,
          "internalType": "address",
          "name": "from",
          "type": "address"
        },
        {
          "indexed": true,
          "internalType": "address",
          "name": "to",
          "type": "address"
        },
        {
          "indexed": true,
          "internalType": "uint256",
          "name": "tokenId",
          "type": "uint256"
        }
      ],
      "name": "Transfer",
      "type": "event"
    },
    {
      "anonymous": false,
      "inputs": [
        {
          "indexed": false,
          "internalType": "string",
          "name": "tokenURI",
          "type": "string"
        }
      ],
      "name": "tokenURICitizenshipChanged",
      "type": "event"
    },
    {
      "inputs": [],
      "name": "CITIZENSHIP_SUPPLY",
      "outputs": [
        {
          "internalType": "uint256",
          "name": "",
          "type": "uint256"
        }
      ],
      "stateMutability": "view",
      "type": "function"
    },
    {
      "inputs": [],
      "name": "DEFAULT_ADMIN_ROLE",
      "outputs": [
        {
          "internalType": "bytes32",
          "name": "",
          "type": "bytes32"
        }
      ],
      "stateMutability": "view",
      "type": "function"
    },
    {
      "inputs": [],
      "name": "MINTER_ROLE",
      "outputs": [
        {
          "internalType": "bytes32",
          "name": "",
          "type": "bytes32"
        }
      ],
      "stateMutability": "view",
      "type": "function"
    },
    {
      "inputs": [
        {
          "internalType": "uint256",
          "name": "_optionId",
          "type": "uint256"
        }
      ],
      "name": "canMint",
      "outputs": [
        {
          "internalType": "bool",
          "name": "",
          "type": "bool"
        }
      ],
      "stateMutability": "view",
      "type": "function"
    },
    {
      "inputs": [
        {
          "internalType": "string",
          "name": "_baseURI",
          "type": "string"
        },
        {
          "internalType": "uint256",
          "name": "_optionId",
          "type": "uint256"
        }
      ],
      "name": "changeTokenURI",
      "outputs": [],
      "stateMutability": "nonpayable",
      "type": "function"
    },
    {
      "inputs": [],
      "name": "citizenshipAddress",
      "outputs": [
        {
          "internalType": "address",
          "name": "",
          "type": "address"
        }
      ],
      "stateMutability": "view",
      "type": "function"
    },
    {
      "inputs": [],
      "name": "getCitizenshipSupply",
      "outputs": [
        {
          "internalType": "uint256",
          "name": "",
          "type": "uint256"
        }
      ],
      "stateMutability": "view",
      "type": "function"
    },
    {
      "inputs": [
        {
          "internalType": "bytes32",
          "name": "role",
          "type": "bytes32"
        }
      ],
      "name": "getRoleAdmin",
      "outputs": [
        {
          "internalType": "bytes32",
          "name": "",
          "type": "bytes32"
        }
      ],
      "stateMutability": "view",
      "type": "function"
    },
    {
      "inputs": [
        {
          "internalType": "bytes32",
          "name": "role",
          "type": "bytes32"
        },
        {
          "internalType": "uint256",
          "name": "index",
          "type": "uint256"
        }
      ],
      "name": "getRoleMember",
      "outputs": [
        {
          "internalType": "address",
          "name": "",
          "type": "address"
        }
      ],
      "stateMutability": "view",
      "type": "function"
    },
    {
      "inputs": [
        {
          "internalType": "bytes32",
          "name": "role",
          "type": "bytes32"
        }
      ],
      "name": "getRoleMemberCount",
      "outputs": [
        {
          "internalType": "uint256",
          "name": "",
          "type": "uint256"
        }
      ],
      "stateMutability": "view",
      "type": "function"
    },
    {
      "inputs": [
        {
          "internalType": "bytes32",
          "name": "role",
          "type": "bytes32"
        },
        {
          "internalType": "address",
          "name": "account",
          "type": "address"
        }
      ],
      "name": "grantRole",
      "outputs": [],
      "stateMutability": "nonpayable",
      "type": "function"
    },
    {
      "inputs": [
        {
          "internalType": "bytes32",
          "name": "role",
          "type": "bytes32"
        },
        {
          "internalType": "address",
          "name": "account",
          "type": "address"
        }
      ],
      "name": "hasRole",
      "outputs": [
        {
          "internalType": "bool",
          "name": "",
          "type": "bool"
        }
      ],
      "stateMutability": "view",
      "type": "function"
    },
    {
      "inputs": [
        {
          "internalType": "uint256",
          "name": "_optionId",
          "type": "uint256"
        },
        {
          "internalType": "address",
          "name": "_toAddress",
          "type": "address"
        }
      ],
      "name": "mint",
      "outputs": [],
      "stateMutability": "nonpayable",
      "type": "function"
    },
    {
      "inputs": [],
      "name": "name",
      "outputs": [
        {
          "internalType": "string",
          "name": "",
          "type": "string"
        }
      ],
      "stateMutability": "pure",
      "type": "function"
    },
    {
      "inputs": [],
      "name": "numOptions",
      "outputs": [
        {
          "internalType": "uint8",
          "name": "",
          "type": "uint8"
        }
      ],
      "stateMutability": "view",
      "type": "function"
    },
    {
      "inputs": [
        {
          "internalType": "uint256",
          "name": "",
          "type": "uint256"
        }
      ],
      "name": "ownerOf",
      "outputs": [
        {
          "internalType": "address",
          "name": "_owner",
          "type": "address"
        }
      ],
      "stateMutability": "view",
      "type": "function"
    },
    {
      "inputs": [
        {
          "internalType": "bytes32",
          "name": "role",
          "type": "bytes32"
        },
        {
          "internalType": "address",
          "name": "account",
          "type": "address"
        }
      ],
      "name": "renounceRole",
      "outputs": [],
      "stateMutability": "nonpayable",
      "type": "function"
    },
    {
      "inputs": [
        {
          "internalType": "bytes32",
          "name": "role",
          "type": "bytes32"
        },
        {
          "internalType": "address",
          "name": "account",
          "type": "address"
        }
      ],
      "name": "revokeRole",
      "outputs": [],
      "stateMutability": "nonpayable",
      "type": "function"
    },
    {
      "inputs": [],
      "name": "supportsFactoryInterface",
      "outputs": [
        {
          "internalType": "bool",
          "name": "",
          "type": "bool"
        }
      ],
      "stateMutability": "pure",
      "type": "function"
    },
    {
      "inputs": [
        {
          "internalType": "bytes4",
          "name": "interfaceId",
          "type": "bytes4"
        }
      ],
      "name": "supportsInterface",
      "outputs": [
        {
          "internalType": "bool",
          "name": "",
          "type": "bool"
        }
      ],
      "stateMutability": "view",
      "type": "function"
    },
    {
      "inputs": [],
      "name": "symbol",
      "outputs": [
        {
          "internalType": "string",
          "name": "",
          "type": "string"
        }
      ],
      "stateMutability": "pure",
      "type": "function"
    },
    {
      "inputs": [
        {
          "internalType": "uint256",
          "name": "_optionId",
          "type": "uint256"
        }
      ],
      "name": "tokenURI",
      "outputs": [
        {
          "internalType": "string",
          "name": "uri",
          "type": "string"
        }
      ],
      "stateMutability": "view",
      "type": "function"
    },
    {
      "inputs": [],
      "name": "tokenURICitizenship",
      "outputs": [
        {
          "internalType": "string",
          "name": "",
          "type": "string"
        }
      ],
      "stateMutability": "view",
      "type": "function"
    },
    {
      "inputs": [
        {
          "internalType": "uint256",
          "name": "_citizenshipSupply",
          "type": "uint256"
        }
      ],
      "name": "updateCitizenshipSupply",
      "outputs": [],
      "stateMutability": "nonpayable",
      "type": "function"
    }
  ],
  "bytecode": "0x6002805461ffff191660011790556107d060035560e0604052603360808181529062001d5460a03980516200003d916005916020909101906200031c565b503480156200004b57600080fd5b5060405162001d8738038062001d878339810160408190526200006e91620003c2565b600480546001600160a01b0319166001600160a01b0383161790556200009d6000620000973390565b620000e8565b620000c97f9f2df0fed2c77648de5860a4cc508cd0818c85b8b8a1ab4ceeef8d981c8956a633620000e8565b620000e16000620000db8180620000f8565b62000127565b5062000476565b620000f482826200019a565b5050565b600082815260016020908152604082206200011e91849062000b6e620001d8821b17901c565b90505b92915050565b60005b60025460ff908116908216101562000195578060ff16826001600160a01b0316846001600160a01b03167fddf252ad1be2c89b69c2b068fc378daa952ba7f163c4a11628f55a4df523b3ef60405160405180910390a4806200018c8162000431565b9150506200012a565b505050565b620001b18282620001e660201b62000b7a1760201c565b60008281526001602090815260409091206200019591839062000c6a62000286821b17901c565b60006200011e83836200029d565b6000828152602081815260408083206001600160a01b038516845290915290205460ff16620000f4576000828152602081815260408083206001600160a01b03851684529091529020805460ff19166001179055620002423390565b6001600160a01b0316816001600160a01b0316837f2f8788117e7eff1d82e926ec794901d17c78024a50270940304540a733656f0d60405160405180910390a45050565b60006200011e836001600160a01b038416620002ca565b6000826000018281548110620002b757620002b762000460565b9060005260206000200154905092915050565b6000818152600183016020526040812054620003135750815460018181018455600084815260208082209093018490558454848252828601909352604090209190915562000121565b50600062000121565b8280546200032a90620003f4565b90600052602060002090601f0160209004810192826200034e576000855562000399565b82601f106200036957805160ff191683800117855562000399565b8280016001018555821562000399579182015b82811115620003995782518255916020019190600101906200037c565b50620003a7929150620003ab565b5090565b5b80821115620003a75760008155600101620003ac565b600060208284031215620003d557600080fd5b81516001600160a01b0381168114620003ed57600080fd5b9392505050565b600181811c908216806200040957607f821691505b602082108114156200042b57634e487b7160e01b600052602260045260246000fd5b50919050565b600060ff821660ff8114156200045757634e487b7160e01b600052601160045260246000fd5b60010192915050565b634e487b7160e01b600052603260045260246000fd5b6118ce80620004866000396000f3fe608060405234801561001057600080fd5b50600436106101985760003560e01c80639010d07c116100e3578063c87b56dd1161008c578063d547741f11610066578063d547741f146103f6578063eb9b685f14610409578063ed1925141461041157600080fd5b8063c87b56dd146103a9578063ca15c873146103bc578063d5391393146103cf57600080fd5b806395d89b41116100bd57806395d89b4114610361578063a217fddf1461039a578063c311c523146103a257600080fd5b80639010d07c146102f757806391d148541461030a57806394bf804d1461034e57600080fd5b80634b97aed9116101455780636352211e1161011f5780636352211e146102a3578063788c5c1f146102db57806384c04b2b146102e457600080fd5b80634b97aed9146102735780635dd871a3146102885780635e4b60ca1461029b57600080fd5b8063248a9ca311610176578063248a9ca31461021c5780632f2ff15d1461024d57806336568abe1461026057600080fd5b806301ffc9a71461019d57806306fdde03146101c55780631073757714610207575b600080fd5b6101b06101ab3660046113e8565b610431565b60405190151581526020015b60405180910390f35b60408051808201909152601081527f4f6e7465636f204974656d2053616c650000000000000000000000000000000060208201525b6040516101bc919061166a565b61021a610215366004611381565b61048d565b005b61023f61022a366004611381565b60009081526020819052604090206001015490565b6040519081526020016101bc565b61021a61025b36600461139a565b6106c3565b61021a61026e36600461139a565b6106ee565b60025460405160ff90911681526020016101bc565b6101b0610296366004611381565b6107a1565b6101fa61088a565b6102b66102b1366004611381565b610918565b60405173ffffffffffffffffffffffffffffffffffffffff90911681526020016101bc565b61023f60035481565b61021a6102f236600461142a565b610924565b6102b66103053660046113c6565b610985565b6101b061031836600461139a565b60009182526020828152604080842073ffffffffffffffffffffffffffffffffffffffff93909316845291905290205460ff1690565b61021a61035c36600461139a565b6109a4565b60408051808201909152600381527f4f4953000000000000000000000000000000000000000000000000000000000060208201526101fa565b61023f600081565b60016101b0565b6101fa6103b7366004611381565b610af4565b61023f6103ca366004611381565b610b31565b61023f7f9f2df0fed2c77648de5860a4cc508cd0818c85b8b8a1ab4ceeef8d981c8956a681565b61021a61040436600461139a565b610b48565b60035461023f565b6004546102b69073ffffffffffffffffffffffffffffffffffffffff1681565b60007fffffffff0000000000000000000000000000000000000000000000000000000082167f5a05180f000000000000000000000000000000000000000000000000000000001480610487575061048782610c8c565b92915050565b60006104998133610d23565b6000821161052e576040517f08c379a000000000000000000000000000000000000000000000000000000000815260206004820152602160248201527f4e657720636974697a656e7368697020737570706c792063616e74206265203060448201527f2e0000000000000000000000000000000000000000000000000000000000000060648201526084015b60405180910390fd5b60048054604080517f18160ddd000000000000000000000000000000000000000000000000000000008152905173ffffffffffffffffffffffffffffffffffffffff9092169283926318160ddd928083019260209291829003018186803b15801561059857600080fd5b505afa1580156105ac573d6000803e3d6000fd5b505050506040513d601f19601f820116820180604052508101906105d091906114fd565b831015610685576040517f08c379a000000000000000000000000000000000000000000000000000000000815260206004820152605560248201527f436974697a656e7368697020737570706c79206d75737420626520677265617460448201527f6572207468616e206f7220657175616c20746f2074686520746f74616c20737560648201527f70706c79206f6620436974697a656e73686970732e0000000000000000000000608482015260a401610525565b60038390556040518381527f9c9b57a8f7c2cfc82719ba6915681cc9c3017c95f975cd45e1d1e57239d3e3f2906020015b60405180910390a1505050565b6000828152602081905260409020600101546106df8133610d23565b6106e98383610df3565b505050565b73ffffffffffffffffffffffffffffffffffffffff81163314610793576040517f08c379a000000000000000000000000000000000000000000000000000000000815260206004820152602f60248201527f416363657373436f6e74726f6c3a2063616e206f6e6c792072656e6f756e636560448201527f20726f6c657320666f722073656c6600000000000000000000000000000000006064820152608401610525565b61079d8282610e15565b5050565b60025460009060ff1682106107b857506000919050565b600254610100900460ff1682141561087d5760048054604080517f18160ddd000000000000000000000000000000000000000000000000000000008152905173ffffffffffffffffffffffffffffffffffffffff9092169260009284926318160ddd9281810192602092909190829003018186803b15801561083957600080fd5b505afa15801561084d573d6000803e3d6000fd5b505050506040513d601f19601f8201168201806040525081019061087191906114fd565b60035411949350505050565b506000919050565b919050565b6005805461089790611788565b80601f01602080910402602001604051908101604052809291908181526020018280546108c390611788565b80156109105780601f106108e557610100808354040283529160200191610910565b820191906000526020600020905b8154815290600101906020018083116108f357829003601f168201915b505050505081565b60006104878180610985565b60006109308133610d23565b600254610100900460ff168214156106e95782516109559060059060208601906112c4565b507f19f8af80c4495f1a0b3738afbaa51c7d74d67c8b398f61ebc013be049e41fec9836040516106b6919061166a565b600082815260016020526040812061099d9083610b6e565b9392505050565b7f9f2df0fed2c77648de5860a4cc508cd0818c85b8b8a1ab4ceeef8d981c8956a66109cf8133610d23565b6109d8836107a1565b610a3e576040517f08c379a000000000000000000000000000000000000000000000000000000000815260206004820152601860248201527f43616e6e6f74206d696e742074686973206f7074696f6e2e00000000000000006044820152606401610525565b60045460025473ffffffffffffffffffffffffffffffffffffffff90911690610100900460ff16841415610aee576040517f755edd1700000000000000000000000000000000000000000000000000000000815273ffffffffffffffffffffffffffffffffffffffff848116600483015282169063755edd1790602401600060405180830381600087803b158015610ad557600080fd5b505af1158015610ae9573d6000803e3d6000fd5b505050505b50505050565b600254606090610100900460ff16821415610885576005604051602001610b1b9190611516565b6040516020818303038152906040529050919050565b600081815260016020526040812061048790610e37565b600082815260208190526040902060010154610b648133610d23565b6106e98383610e15565b600061099d8383610e41565b60008281526020818152604080832073ffffffffffffffffffffffffffffffffffffffff8516845290915290205460ff1661079d5760008281526020818152604080832073ffffffffffffffffffffffffffffffffffffffff85168452909152902080547fffffffffffffffffffffffffffffffffffffffffffffffffffffffffffffff00166001179055610c0c3390565b73ffffffffffffffffffffffffffffffffffffffff168173ffffffffffffffffffffffffffffffffffffffff16837f2f8788117e7eff1d82e926ec794901d17c78024a50270940304540a733656f0d60405160405180910390a45050565b600061099d8373ffffffffffffffffffffffffffffffffffffffff8416610e6b565b60007fffffffff0000000000000000000000000000000000000000000000000000000082167f7965db0b00000000000000000000000000000000000000000000000000000000148061048757507f01ffc9a7000000000000000000000000000000000000000000000000000000007fffffffff00000000000000000000000000000000000000000000000000000000831614610487565b60008281526020818152604080832073ffffffffffffffffffffffffffffffffffffffff8516845290915290205460ff1661079d57610d798173ffffffffffffffffffffffffffffffffffffffff166014610eba565b610d84836020610eba565b604051602001610d959291906115e9565b604080517fffffffffffffffffffffffffffffffffffffffffffffffffffffffffffffffe0818403018152908290527f08c379a00000000000000000000000000000000000000000000000000000000082526105259160040161166a565b610dfd8282610b7a565b60008281526001602052604090206106e99082610c6a565b610e1f82826110fd565b60008281526001602052604090206106e990826111b4565b6000610487825490565b6000826000018281548110610e5857610e5861183a565b9060005260206000200154905092915050565b6000818152600183016020526040812054610eb257508154600181810184556000848152602080822090930184905584548482528286019093526040902091909155610487565b506000610487565b60606000610ec98360026116d3565b610ed49060026116bb565b67ffffffffffffffff811115610eec57610eec611869565b6040519080825280601f01601f191660200182016040528015610f16576020820181803683370190505b5090507f300000000000000000000000000000000000000000000000000000000000000081600081518110610f4d57610f4d61183a565b60200101907effffffffffffffffffffffffffffffffffffffffffffffffffffffffffffff1916908160001a9053507f780000000000000000000000000000000000000000000000000000000000000081600181518110610fb057610fb061183a565b60200101907effffffffffffffffffffffffffffffffffffffffffffffffffffffffffffff1916908160001a9053506000610fec8460026116d3565b610ff79060016116bb565b90505b6001811115611094577f303132333435363738396162636465660000000000000000000000000000000085600f16601081106110385761103861183a565b1a60f81b82828151811061104e5761104e61183a565b60200101907effffffffffffffffffffffffffffffffffffffffffffffffffffffffffffff1916908160001a90535060049490941c9361108d81611753565b9050610ffa565b50831561099d576040517f08c379a000000000000000000000000000000000000000000000000000000000815260206004820181905260248201527f537472696e67733a20686578206c656e67746820696e73756666696369656e746044820152606401610525565b60008281526020818152604080832073ffffffffffffffffffffffffffffffffffffffff8516845290915290205460ff161561079d5760008281526020818152604080832073ffffffffffffffffffffffffffffffffffffffff8516808552925280832080547fffffffffffffffffffffffffffffffffffffffffffffffffffffffffffffff0016905551339285917ff6391f5c32d9c69d2a47ea670b442974b53935d1edc7fd64eb21e047a839171b9190a45050565b600061099d8373ffffffffffffffffffffffffffffffffffffffff8416600081815260018301602052604081205480156112ba5760006111f5600183611710565b855490915060009061120990600190611710565b905081811461126e5760008660000182815481106112295761122961183a565b906000526020600020015490508087600001848154811061124c5761124c61183a565b6000918252602080832090910192909255918252600188019052604090208390555b855486908061127f5761127f61180b565b600190038181906000526020600020016000905590558560010160008681526020019081526020016000206000905560019350505050610487565b6000915050610487565b8280546112d090611788565b90600052602060002090601f0160209004810192826112f25760008555611338565b82601f1061130b57805160ff1916838001178555611338565b82800160010185558215611338579182015b8281111561133857825182559160200191906001019061131d565b50611344929150611348565b5090565b5b808211156113445760008155600101611349565b803573ffffffffffffffffffffffffffffffffffffffff8116811461088557600080fd5b60006020828403121561139357600080fd5b5035919050565b600080604083850312156113ad57600080fd5b823591506113bd6020840161135d565b90509250929050565b600080604083850312156113d957600080fd5b50508035926020909101359150565b6000602082840312156113fa57600080fd5b81357fffffffff000000000000000000000000000000000000000000000000000000008116811461099d57600080fd5b6000806040838503121561143d57600080fd5b823567ffffffffffffffff8082111561145557600080fd5b818501915085601f83011261146957600080fd5b81358181111561147b5761147b611869565b604051601f82017fffffffffffffffffffffffffffffffffffffffffffffffffffffffffffffffe0908116603f011681019083821181831017156114c1576114c1611869565b816040528281528860208487010111156114da57600080fd5b826020860160208301376000602093820184015298969091013596505050505050565b60006020828403121561150f57600080fd5b5051919050565b600080835481600182811c91508083168061153257607f831692505b602080841082141561156b577f4e487b710000000000000000000000000000000000000000000000000000000086526022600452602486fd5b81801561157f57600181146115ae576115db565b7fffffffffffffffffffffffffffffffffffffffffffffffffffffffffffffff008616895284890196506115db565b60008a81526020902060005b868110156115d35781548b8201529085019083016115ba565b505084890196505b509498975050505050505050565b7f416363657373436f6e74726f6c3a206163636f756e7420000000000000000000815260008351611621816017850160208801611727565b7f206973206d697373696e6720726f6c6520000000000000000000000000000000601791840191820152835161165e816028840160208801611727565b01602801949350505050565b6020815260008251806020840152611689816040850160208701611727565b601f017fffffffffffffffffffffffffffffffffffffffffffffffffffffffffffffffe0169190910160400192915050565b600082198211156116ce576116ce6117dc565b500190565b6000817fffffffffffffffffffffffffffffffffffffffffffffffffffffffffffffffff048311821515161561170b5761170b6117dc565b500290565b600082821015611722576117226117dc565b500390565b60005b8381101561174257818101518382015260200161172a565b83811115610aee5750506000910152565b600081611762576117626117dc565b507fffffffffffffffffffffffffffffffffffffffffffffffffffffffffffffffff0190565b600181811c9082168061179c57607f821691505b602082108114156117d6577f4e487b7100000000000000000000000000000000000000000000000000000000600052602260045260246000fd5b50919050565b7f4e487b7100000000000000000000000000000000000000000000000000000000600052601160045260246000fd5b7f4e487b7100000000000000000000000000000000000000000000000000000000600052603160045260246000fd5b7f4e487b7100000000000000000000000000000000000000000000000000000000600052603260045260246000fd5b7f4e487b7100000000000000000000000000000000000000000000000000000000600052604160045260246000fdfea26469706673582212203009e6b0d0082d82ec749851000803fc3409f4a9065c3fef600782056d86ce8c64736f6c63430008070033687474703a2f2f3134322e39332e3139352e3136393a333030312f6170692f666163746f72792d636974697a656e736869702f",
  "linkReferences": {},
  "deployedLinkReferences": {}
}