{
  "_format": "hh-sol-artifact-1",
  "contractName": "Citizenship",
  "sourceName": "contracts/Citizenship.sol",
  "abi": [
    {
      "inputs": [],
      "stateMutability": "nonpayable",
      "type": "constructor"
    },
    {
      "anonymous": false,
      "inputs": [
        {
          "indexed": true,
          "internalType": "address",
          "name": "owner",
          "type": "address"
        },
        {
          "indexed": true,
          "internalType": "address",
          "name": "approved",
          "type": "address"
        },
        {
          "indexed": true,
          "internalType": "uint256",
          "name": "tokenId",
          "type": "uint256"
        }
      ],
      "name": "Approval",
      "type": "event"
    },
    {
      "anonymous": false,
      "inputs": [
        {
          "indexed": true,
          "internalType": "address",
          "name": "owner",
          "type": "address"
        },
        {
          "indexed": true,
          "internalType": "address",
          "name": "operator",
          "type": "address"
        },
        {
          "indexed": false,
          "internalType": "bool",
          "name": "approved",
          "type": "bool"
        }
      ],
      "name": "ApprovalForAll",
      "type": "event"
    },
    {
      "anonymous": false,
      "inputs": [
        {
          "indexed": false,
          "internalType": "address",
          "name": "userAddress",
          "type": "address"
        },
        {
          "indexed": false,
          "internalType": "address payable",
          "name": "relayerAddress",
          "type": "address"
        },
        {
          "indexed": false,
          "internalType": "bytes",
          "name": "functionSignature",
          "type": "bytes"
        }
      ],
      "name": "MetaTransactionExecuted",
      "type": "event"
    },
    {
      "anonymous": false,
      "inputs": [
        {
          "indexed": true,
          "internalType": "bytes32",
          "name": "role",
          "type": "bytes32"
        },
        {
          "indexed": true,
          "internalType": "bytes32",
          "name": "previousAdminRole",
          "type": "bytes32"
        },
        {
          "indexed": true,
          "internalType": "bytes32",
          "name": "newAdminRole",
          "type": "bytes32"
        }
      ],
      "name": "RoleAdminChanged",
      "type": "event"
    },
    {
      "anonymous": false,
      "inputs": [
        {
          "indexed": true,
          "internalType": "bytes32",
          "name": "role",
          "type": "bytes32"
        },
        {
          "indexed": true,
          "internalType": "address",
          "name": "account",
          "type": "address"
        },
        {
          "indexed": true,
          "internalType": "address",
          "name": "sender",
          "type": "address"
        }
      ],
      "name": "RoleGranted",
      "type": "event"
    },
    {
      "anonymous": false,
      "inputs": [
        {
          "indexed": true,
          "internalType": "bytes32",
          "name": "role",
          "type": "bytes32"
        },
        {
          "indexed": true,
          "internalType": "address",
          "name": "account",
          "type": "address"
        },
        {
          "indexed": true,
          "internalType": "address",
          "name": "sender",
          "type": "address"
        }
      ],
      "name": "RoleRevoked",
      "type": "event"
    },
    {
      "anonymous": false,
      "inputs": [
        {
          "indexed": true,
          "internalType": "address",
          "name": "from",
          "type": "address"
        },
        {
          "indexed": true,
          "internalType": "address",
          "name": "to",
          "type": "address"
        },
        {
          "indexed": true,
          "internalType": "uint256",
          "name": "tokenId",
          "type": "uint256"
        }
      ],
      "name": "Transfer",
      "type": "event"
    },
    {
      "anonymous": false,
      "inputs": [
        {
          "indexed": false,
          "internalType": "string",
          "name": "_baseURI",
          "type": "string"
        }
      ],
      "name": "baseTokenURIChanged",
      "type": "event"
    },
    {
      "anonymous": false,
      "inputs": [
        {
          "indexed": false,
          "internalType": "address",
          "name": "_to",
          "type": "address"
        },
        {
          "indexed": true,
          "internalType": "uint256",
          "name": "_tokenId",
          "type": "uint256"
        }
      ],
      "name": "citizenshipCreated",
      "type": "event"
    },
    {
      "anonymous": false,
      "inputs": [
        {
          "indexed": true,
          "internalType": "uint256",
          "name": "_id",
          "type": "uint256"
        },
        {
          "indexed": false,
          "internalType": "bool",
          "name": "_status",
          "type": "bool"
        }
      ],
      "name": "citizenshipStatusChanged",
      "type": "event"
    },
    {
      "inputs": [],
      "name": "DEFAULT_ADMIN_ROLE",
      "outputs": [
        {
          "internalType": "bytes32",
          "name": "",
          "type": "bytes32"
        }
      ],
      "stateMutability": "view",
      "type": "function"
    },
    {
      "inputs": [],
      "name": "ERC712_VERSION",
      "outputs": [
        {
          "internalType": "string",
          "name": "",
          "type": "string"
        }
      ],
      "stateMutability": "view",
      "type": "function"
    },
    {
      "inputs": [],
      "name": "MINTER_ROLE",
      "outputs": [
        {
          "internalType": "bytes32",
          "name": "",
          "type": "bytes32"
        }
      ],
      "stateMutability": "view",
      "type": "function"
    },
    {
      "inputs": [
        {
          "internalType": "address",
          "name": "to",
          "type": "address"
        },
        {
          "internalType": "uint256",
          "name": "tokenId",
          "type": "uint256"
        }
      ],
      "name": "approve",
      "outputs": [],
      "stateMutability": "nonpayable",
      "type": "function"
    },
    {
      "inputs": [
        {
          "internalType": "address",
          "name": "owner",
          "type": "address"
        }
      ],
      "name": "balanceOf",
      "outputs": [
        {
          "internalType": "uint256",
          "name": "",
          "type": "uint256"
        }
      ],
      "stateMutability": "view",
      "type": "function"
    },
    {
      "inputs": [],
      "name": "baseTokenURI",
      "outputs": [
        {
          "internalType": "string",
          "name": "",
          "type": "string"
        }
      ],
      "stateMutability": "view",
      "type": "function"
    },
    {
      "inputs": [
        {
          "internalType": "string",
          "name": "_baseURI",
          "type": "string"
        }
      ],
      "name": "changeBaseTokenURI",
      "outputs": [],
      "stateMutability": "nonpayable",
      "type": "function"
    },
    {
      "inputs": [
        {
          "internalType": "uint8",
          "name": "_citizenshipPerUser",
          "type": "uint8"
        }
      ],
      "name": "changeCitizenshipsPerUser",
      "outputs": [],
      "stateMutability": "nonpayable",
      "type": "function"
    },
    {
      "inputs": [
        {
          "internalType": "uint256",
          "name": "",
          "type": "uint256"
        }
      ],
      "name": "citizenshipStatus",
      "outputs": [
        {
          "internalType": "bool",
          "name": "",
          "type": "bool"
        }
      ],
      "stateMutability": "view",
      "type": "function"
    },
    {
      "inputs": [
        {
          "internalType": "uint256",
          "name": "_tokenId",
          "type": "uint256"
        }
      ],
      "name": "disableCitizenship",
      "outputs": [],
      "stateMutability": "nonpayable",
      "type": "function"
    },
    {
      "inputs": [
        {
          "internalType": "uint256",
          "name": "_tokenId",
          "type": "uint256"
        }
      ],
      "name": "enableCitizenship",
      "outputs": [],
      "stateMutability": "nonpayable",
      "type": "function"
    },
    {
      "inputs": [
        {
          "internalType": "address",
          "name": "userAddress",
          "type": "address"
        },
        {
          "internalType": "bytes",
          "name": "functionSignature",
          "type": "bytes"
        },
        {
          "internalType": "bytes32",
          "name": "sigR",
          "type": "bytes32"
        },
        {
          "internalType": "bytes32",
          "name": "sigS",
          "type": "bytes32"
        },
        {
          "internalType": "uint8",
          "name": "sigV",
          "type": "uint8"
        }
      ],
      "name": "executeMetaTransaction",
      "outputs": [
        {
          "internalType": "bytes",
          "name": "",
          "type": "bytes"
        }
      ],
      "stateMutability": "payable",
      "type": "function"
    },
    {
      "inputs": [
        {
          "internalType": "uint256",
          "name": "tokenId",
          "type": "uint256"
        }
      ],
      "name": "getApproved",
      "outputs": [
        {
          "internalType": "address",
          "name": "",
          "type": "address"
        }
      ],
      "stateMutability": "view",
      "type": "function"
    },
    {
      "inputs": [],
      "name": "getChainId",
      "outputs": [
        {
          "internalType": "uint256",
          "name": "",
          "type": "uint256"
        }
      ],
      "stateMutability": "view",
      "type": "function"
    },
    {
      "inputs": [],
      "name": "getDomainSeperator",
      "outputs": [
        {
          "internalType": "bytes32",
          "name": "",
          "type": "bytes32"
        }
      ],
      "stateMutability": "view",
      "type": "function"
    },
    {
      "inputs": [
        {
          "internalType": "address",
          "name": "user",
          "type": "address"
        }
      ],
      "name": "getNonce",
      "outputs": [
        {
          "internalType": "uint256",
          "name": "nonce",
          "type": "uint256"
        }
      ],
      "stateMutability": "view",
      "type": "function"
    },
    {
      "inputs": [
        {
          "internalType": "bytes32",
          "name": "role",
          "type": "bytes32"
        }
      ],
      "name": "getRoleAdmin",
      "outputs": [
        {
          "internalType": "bytes32",
          "name": "",
          "type": "bytes32"
        }
      ],
      "stateMutability": "view",
      "type": "function"
    },
    {
      "inputs": [
        {
          "internalType": "bytes32",
          "name": "role",
          "type": "bytes32"
        },
        {
          "internalType": "uint256",
          "name": "index",
          "type": "uint256"
        }
      ],
      "name": "getRoleMember",
      "outputs": [
        {
          "internalType": "address",
          "name": "",
          "type": "address"
        }
      ],
      "stateMutability": "view",
      "type": "function"
    },
    {
      "inputs": [
        {
          "internalType": "bytes32",
          "name": "role",
          "type": "bytes32"
        }
      ],
      "name": "getRoleMemberCount",
      "outputs": [
        {
          "internalType": "uint256",
          "name": "",
          "type": "uint256"
        }
      ],
      "stateMutability": "view",
      "type": "function"
    },
    {
      "inputs": [
        {
          "internalType": "bytes32",
          "name": "role",
          "type": "bytes32"
        },
        {
          "internalType": "address",
          "name": "account",
          "type": "address"
        }
      ],
      "name": "grantRole",
      "outputs": [],
      "stateMutability": "nonpayable",
      "type": "function"
    },
    {
      "inputs": [
        {
          "internalType": "bytes32",
          "name": "role",
          "type": "bytes32"
        },
        {
          "internalType": "address",
          "name": "account",
          "type": "address"
        }
      ],
      "name": "hasRole",
      "outputs": [
        {
          "internalType": "bool",
          "name": "",
          "type": "bool"
        }
      ],
      "stateMutability": "view",
      "type": "function"
    },
    {
      "inputs": [
        {
          "internalType": "address",
          "name": "owner",
          "type": "address"
        },
        {
          "internalType": "address",
          "name": "operator",
          "type": "address"
        }
      ],
      "name": "isApprovedForAll",
      "outputs": [
        {
          "internalType": "bool",
          "name": "",
          "type": "bool"
        }
      ],
      "stateMutability": "view",
      "type": "function"
    },
    {
      "inputs": [
        {
          "internalType": "uint256",
          "name": "_tokenId",
          "type": "uint256"
        }
      ],
      "name": "isCitizenshipEnabled",
      "outputs": [
        {
          "internalType": "bool",
          "name": "",
          "type": "bool"
        }
      ],
      "stateMutability": "view",
      "type": "function"
    },
    {
      "inputs": [
        {
          "internalType": "address",
          "name": "_to",
          "type": "address"
        }
      ],
      "name": "mintTo",
      "outputs": [],
      "stateMutability": "nonpayable",
      "type": "function"
    },
    {
      "inputs": [],
      "name": "name",
      "outputs": [
        {
          "internalType": "string",
          "name": "",
          "type": "string"
        }
      ],
      "stateMutability": "view",
      "type": "function"
    },
    {
      "inputs": [
        {
          "internalType": "uint256",
          "name": "tokenId",
          "type": "uint256"
        }
      ],
      "name": "ownerOf",
      "outputs": [
        {
          "internalType": "address",
          "name": "",
          "type": "address"
        }
      ],
      "stateMutability": "view",
      "type": "function"
    },
    {
      "inputs": [
        {
          "internalType": "bytes32",
          "name": "role",
          "type": "bytes32"
        },
        {
          "internalType": "address",
          "name": "account",
          "type": "address"
        }
      ],
      "name": "renounceRole",
      "outputs": [],
      "stateMutability": "nonpayable",
      "type": "function"
    },
    {
      "inputs": [
        {
          "internalType": "bytes32",
          "name": "role",
          "type": "bytes32"
        },
        {
          "internalType": "address",
          "name": "account",
          "type": "address"
        }
      ],
      "name": "revokeRole",
      "outputs": [],
      "stateMutability": "nonpayable",
      "type": "function"
    },
    {
      "inputs": [
        {
          "internalType": "address",
          "name": "from",
          "type": "address"
        },
        {
          "internalType": "address",
          "name": "to",
          "type": "address"
        },
        {
          "internalType": "uint256",
          "name": "tokenId",
          "type": "uint256"
        }
      ],
      "name": "safeTransferFrom",
      "outputs": [],
      "stateMutability": "nonpayable",
      "type": "function"
    },
    {
      "inputs": [
        {
          "internalType": "address",
          "name": "from",
          "type": "address"
        },
        {
          "internalType": "address",
          "name": "to",
          "type": "address"
        },
        {
          "internalType": "uint256",
          "name": "tokenId",
          "type": "uint256"
        },
        {
          "internalType": "bytes",
          "name": "_data",
          "type": "bytes"
        }
      ],
      "name": "safeTransferFrom",
      "outputs": [],
      "stateMutability": "nonpayable",
      "type": "function"
    },
    {
      "inputs": [
        {
          "internalType": "address",
          "name": "operator",
          "type": "address"
        },
        {
          "internalType": "bool",
          "name": "approved",
          "type": "bool"
        }
      ],
      "name": "setApprovalForAll",
      "outputs": [],
      "stateMutability": "nonpayable",
      "type": "function"
    },
    {
      "inputs": [
        {
          "internalType": "bytes4",
          "name": "interfaceId",
          "type": "bytes4"
        }
      ],
      "name": "supportsInterface",
      "outputs": [
        {
          "internalType": "bool",
          "name": "",
          "type": "bool"
        }
      ],
      "stateMutability": "view",
      "type": "function"
    },
    {
      "inputs": [],
      "name": "symbol",
      "outputs": [
        {
          "internalType": "string",
          "name": "",
          "type": "string"
        }
      ],
      "stateMutability": "view",
      "type": "function"
    },
    {
      "inputs": [
        {
          "internalType": "uint256",
          "name": "index",
          "type": "uint256"
        }
      ],
      "name": "tokenByIndex",
      "outputs": [
        {
          "internalType": "uint256",
          "name": "",
          "type": "uint256"
        }
      ],
      "stateMutability": "view",
      "type": "function"
    },
    {
      "inputs": [
        {
          "internalType": "address",
          "name": "owner",
          "type": "address"
        },
        {
          "internalType": "uint256",
          "name": "index",
          "type": "uint256"
        }
      ],
      "name": "tokenOfOwnerByIndex",
      "outputs": [
        {
          "internalType": "uint256",
          "name": "",
          "type": "uint256"
        }
      ],
      "stateMutability": "view",
      "type": "function"
    },
    {
      "inputs": [
        {
          "internalType": "uint256",
          "name": "_tokenId",
          "type": "uint256"
        }
      ],
      "name": "tokenURI",
      "outputs": [
        {
          "internalType": "string",
          "name": "",
          "type": "string"
        }
      ],
      "stateMutability": "view",
      "type": "function"
    },
    {
      "inputs": [],
      "name": "totalSupply",
      "outputs": [
        {
          "internalType": "uint256",
          "name": "",
          "type": "uint256"
        }
      ],
      "stateMutability": "view",
      "type": "function"
    },
    {
      "inputs": [
        {
          "internalType": "address",
          "name": "from",
          "type": "address"
        },
        {
          "internalType": "address",
          "name": "to",
          "type": "address"
        },
        {
          "internalType": "uint256",
          "name": "tokenId",
          "type": "uint256"
        }
      ],
      "name": "transferFrom",
      "outputs": [],
      "stateMutability": "nonpayable",
      "type": "function"
    }
  ],
  "bytecode": "0x600a805460ff1990811690915560108054909116600117905560e0604052602b608081815290620040eb60a039805162000042916011916020909101906200039f565b503480156200005057600080fd5b50604080518082018252600b81526a0436974697a656e736869760ac1b6020808301918252835180850190945260048452630435348560e41b90840152815191929183918391620000a4916000916200039f565b508051620000ba9060019060208401906200039f565b505050620000ce826200012760201b60201c565b50620000de90506000336200018b565b6200010a7f9f2df0fed2c77648de5860a4cc508cd0818c85b8b8a1ab4ceeef8d981c8956a6336200018b565b62000121600f6200019b60201b620018f61760201c565b62000482565b600a5460ff1615620001705760405162461bcd60e51b815260206004820152600e60248201526d185b1c9958591e481a5b9a5d195960921b604482015260640160405180910390fd5b6200017b81620001a4565b50600a805460ff19166001179055565b62000197828262000246565b5050565b80546001019055565b6040518060800160405280604f81526020016200409c604f9139805160209182012082519282019290922060408051808201825260018152603160f81b90840152805180840194909452838101919091527fc89efdaa54c0f20c7adf612882df0950f5a951637e0307cdcb4c672f298b8bc660608401523060808401524660a0808501919091528151808503909101815260c090930190528151910120600b55565b6200025d82826200028960201b620018ff1760201c565b6000828152600e6020908152604090912062000284918390620019f36200032d821b17901c565b505050565b6000828152600d602090815260408083206001600160a01b038516845290915290205460ff1662000197576000828152600d602090815260408083206001600160a01b03851684529091529020805460ff19166001179055620002e93390565b6001600160a01b0316816001600160a01b0316837f2f8788117e7eff1d82e926ec794901d17c78024a50270940304540a733656f0d60405160405180910390a45050565b600062000344836001600160a01b0384166200034d565b90505b92915050565b6000818152600183016020526040812054620003965750815460018181018455600084815260208082209093018490558454848252828601909352604090209190915562000347565b50600062000347565b828054620003ad9062000445565b90600052602060002090601f016020900481019282620003d157600085556200041c565b82601f10620003ec57805160ff19168380011785556200041c565b828001600101855582156200041c579182015b828111156200041c578251825591602001919060010190620003ff565b506200042a9291506200042e565b5090565b5b808211156200042a57600081556001016200042f565b600181811c908216806200045a57607f821691505b602082108114156200047c57634e487b7160e01b600052602260045260246000fd5b50919050565b613c0a80620004926000396000f3fe6080604052600436106102855760003560e01c806370a0823111610153578063be2b37ab116100cb578063d547cfb71161007f578063e40e97a711610064578063e40e97a7146107a4578063e985e9c5146107c4578063fc6359771461081a57600080fd5b8063d547cfb71461075f578063dc228f9f1461077457600080fd5b8063ca15c873116100b0578063ca15c873146106eb578063d53913931461070b578063d547741f1461073f57600080fd5b8063be2b37ab146106ab578063c87b56dd146106cb57600080fd5b806395d89b4111610122578063a217fddf11610107578063a217fddf14610656578063a22cb4651461066b578063b88d4fde1461068b57600080fd5b806395d89b4114610621578063991f6d411461063657600080fd5b806370a082311461056e578063755edd171461058e5780639010d07c146105ae57806391d14854146105ce57600080fd5b806323b872dd116102015780633408e470116101b557806342842e0e1161019a57806342842e0e1461050e5780634f6ccce71461052e5780636352211e1461054e57600080fd5b80633408e470146104db57806336568abe146104ee57600080fd5b80632d0335ab116101e65780632d0335ab146104585780632f2ff15d1461049b5780632f745c59146104bb57600080fd5b806323b872dd14610408578063248a9ca31461042857600080fd5b80630c53c51c1161025857806318160ddd1161023d57806318160ddd146103a457806320379ee5146103c3578063237229cd146103d857600080fd5b80630c53c51c146103485780630f7e59701461035b57600080fd5b806301ffc9a71461028a57806306fdde03146102bf578063081812fc146102e1578063095ea7b314610326575b600080fd5b34801561029657600080fd5b506102aa6102a5366004613657565b61083a565b60405190151581526020015b60405180910390f35b3480156102cb57600080fd5b506102d4610896565b6040516102b691906138e0565b3480156102ed57600080fd5b506103016102fc3660046135f9565b610928565b60405173ffffffffffffffffffffffffffffffffffffffff90911681526020016102b6565b34801561033257600080fd5b506103466103413660046135cf565b610a07565b005b6102d461035636600461355d565b610b94565b34801561036757600080fd5b506102d46040518060400160405280600181526020017f310000000000000000000000000000000000000000000000000000000000000081525081565b3480156103b057600080fd5b506008545b6040519081526020016102b6565b3480156103cf57600080fd5b50600b546103b5565b3480156103e457600080fd5b506102aa6103f33660046135f9565b60009081526012602052604090205460ff1690565b34801561041457600080fd5b5061034661042336600461347d565b610e20565b34801561043457600080fd5b506103b56104433660046135f9565b6000908152600d602052604090206001015490565b34801561046457600080fd5b506103b561047336600461342f565b73ffffffffffffffffffffffffffffffffffffffff166000908152600c602052604090205490565b3480156104a757600080fd5b506103466104b6366004613612565b610f5d565b3480156104c757600080fd5b506103b56104d63660046135cf565b610f83565b3480156104e757600080fd5b50466103b5565b3480156104fa57600080fd5b50610346610509366004613612565b611052565b34801561051a57600080fd5b5061034661052936600461347d565b611105565b34801561053a57600080fd5b506103b56105493660046135f9565b611120565b34801561055a57600080fd5b506103016105693660046135f9565b6111de565b34801561057a57600080fd5b506103b561058936600461342f565b611290565b34801561059a57600080fd5b506103466105a936600461342f565b61135e565b3480156105ba57600080fd5b506103016105c9366004613635565b6114a3565b3480156105da57600080fd5b506102aa6105e9366004613612565b6000918252600d6020908152604080842073ffffffffffffffffffffffffffffffffffffffff93909316845291905290205460ff1690565b34801561062d57600080fd5b506102d46114c2565b34801561064257600080fd5b506103466106513660046136da565b6114d1565b34801561066257600080fd5b506103b5600081565b34801561067757600080fd5b50610346610686366004613521565b61157f565b34801561069757600080fd5b506103466106a63660046134b9565b61158a565b3480156106b757600080fd5b506103466106c63660046135f9565b611632565b3480156106d757600080fd5b506102d46106e63660046135f9565b61172c565b3480156106f757600080fd5b506103b56107063660046135f9565b611766565b34801561071757600080fd5b506103b57f9f2df0fed2c77648de5860a4cc508cd0818c85b8b8a1ab4ceeef8d981c8956a681565b34801561074b57600080fd5b5061034661075a366004613612565b61177d565b34801561076b57600080fd5b506102d46117a3565b34801561078057600080fd5b506102aa61078f3660046135f9565b60126020526000908152604090205460ff1681565b3480156107b057600080fd5b506103466107bf366004613691565b6117b2565b3480156107d057600080fd5b506102aa6107df36600461344a565b73ffffffffffffffffffffffffffffffffffffffff918216600090815260056020908152604080832093909416825291909152205460ff1690565b34801561082657600080fd5b506103466108353660046135f9565b61180d565b60007fffffffff0000000000000000000000000000000000000000000000000000000082167f780e9d63000000000000000000000000000000000000000000000000000000001480610890575061089082611a15565b92915050565b6060600080546108a5906139d4565b80601f01602080910402602001604051908101604052809291908181526020018280546108d1906139d4565b801561091e5780601f106108f35761010080835404028352916020019161091e565b820191906000526020600020905b81548152906001019060200180831161090157829003601f168201915b5050505050905090565b60008181526002602052604081205473ffffffffffffffffffffffffffffffffffffffff166109de576040517f08c379a000000000000000000000000000000000000000000000000000000000815260206004820152602c60248201527f4552433732313a20617070726f76656420717565727920666f72206e6f6e657860448201527f697374656e7420746f6b656e000000000000000000000000000000000000000060648201526084015b60405180910390fd5b5060009081526004602052604090205473ffffffffffffffffffffffffffffffffffffffff1690565b6000610a12826111de565b90508073ffffffffffffffffffffffffffffffffffffffff168373ffffffffffffffffffffffffffffffffffffffff161415610ad0576040517f08c379a000000000000000000000000000000000000000000000000000000000815260206004820152602160248201527f4552433732313a20617070726f76616c20746f2063757272656e74206f776e6560448201527f720000000000000000000000000000000000000000000000000000000000000060648201526084016109d5565b3373ffffffffffffffffffffffffffffffffffffffff82161480610af95750610af981336107df565b610b85576040517f08c379a000000000000000000000000000000000000000000000000000000000815260206004820152603860248201527f4552433732313a20617070726f76652063616c6c6572206973206e6f74206f7760448201527f6e6572206e6f7220617070726f76656420666f7220616c6c000000000000000060648201526084016109d5565b610b8f8383611a6b565b505050565b604080516060818101835273ffffffffffffffffffffffffffffffffffffffff88166000818152600c602090815290859020548452830152918101869052610bdf8782878787611b0b565b610c6b576040517f08c379a000000000000000000000000000000000000000000000000000000000815260206004820152602160248201527f5369676e657220616e64207369676e617475726520646f206e6f74206d61746360448201527f680000000000000000000000000000000000000000000000000000000000000060648201526084016109d5565b73ffffffffffffffffffffffffffffffffffffffff87166000908152600c6020526040902054610c9c906001611c54565b73ffffffffffffffffffffffffffffffffffffffff88166000908152600c60205260409081902091909155517f5845892132946850460bff5a0083f71031bc5bf9aadcd40f1de79423eac9b10b90610cf990899033908a90613855565b60405180910390a16000803073ffffffffffffffffffffffffffffffffffffffff16888a604051602001610d2e92919061375b565b604080517fffffffffffffffffffffffffffffffffffffffffffffffffffffffffffffffe081840301815290829052610d669161373f565b6000604051808303816000865af19150503d8060008114610da3576040519150601f19603f3d011682016040523d82523d6000602084013e610da8565b606091505b509150915081610e14576040517f08c379a000000000000000000000000000000000000000000000000000000000815260206004820152601c60248201527f46756e6374696f6e2063616c6c206e6f74207375636365737366756c0000000060448201526064016109d5565b98975050505050505050565b610e2a3382611c60565b610eb6576040517f08c379a000000000000000000000000000000000000000000000000000000000815260206004820152603160248201527f4552433732313a207472616e736665722063616c6c6572206973206e6f74206f60448201527f776e6572206e6f7220617070726f76656400000000000000000000000000000060648201526084016109d5565b60105460ff16610ec583611290565b10610f52576040517f08c379a000000000000000000000000000000000000000000000000000000000815260206004820152602f60248201527f43616e6e6f74206d696e74206d6f7265207468616e206f6e6520636974697a6560448201527f6e736869702070657220757365722e000000000000000000000000000000000060648201526084016109d5565b610b8f838383611dd0565b6000828152600d6020526040902060010154610f798133612042565b610b8f8383612114565b6000610f8e83611290565b821061101c576040517f08c379a000000000000000000000000000000000000000000000000000000000815260206004820152602b60248201527f455243373231456e756d657261626c653a206f776e657220696e646578206f7560448201527f74206f6620626f756e647300000000000000000000000000000000000000000060648201526084016109d5565b5073ffffffffffffffffffffffffffffffffffffffff919091166000908152600660209081526040808320938352929052205490565b73ffffffffffffffffffffffffffffffffffffffff811633146110f7576040517f08c379a000000000000000000000000000000000000000000000000000000000815260206004820152602f60248201527f416363657373436f6e74726f6c3a2063616e206f6e6c792072656e6f756e636560448201527f20726f6c657320666f722073656c66000000000000000000000000000000000060648201526084016109d5565b6111018282612136565b5050565b610b8f8383836040518060200160405280600081525061158a565b600061112b60085490565b82106111b9576040517f08c379a000000000000000000000000000000000000000000000000000000000815260206004820152602c60248201527f455243373231456e756d657261626c653a20676c6f62616c20696e646578206f60448201527f7574206f6620626f756e6473000000000000000000000000000000000000000060648201526084016109d5565b600882815481106111cc576111cc613b02565b90600052602060002001549050919050565b60008181526002602052604081205473ffffffffffffffffffffffffffffffffffffffff1680610890576040517f08c379a000000000000000000000000000000000000000000000000000000000815260206004820152602960248201527f4552433732313a206f776e657220717565727920666f72206e6f6e657869737460448201527f656e7420746f6b656e000000000000000000000000000000000000000000000060648201526084016109d5565b600073ffffffffffffffffffffffffffffffffffffffff8216611335576040517f08c379a000000000000000000000000000000000000000000000000000000000815260206004820152602a60248201527f4552433732313a2062616c616e636520717565727920666f7220746865207a6560448201527f726f20616464726573730000000000000000000000000000000000000000000060648201526084016109d5565b5073ffffffffffffffffffffffffffffffffffffffff1660009081526003602052604090205490565b7f9f2df0fed2c77648de5860a4cc508cd0818c85b8b8a1ab4ceeef8d981c8956a66113898133612042565b60105460ff1661139883611290565b10611425576040517f08c379a000000000000000000000000000000000000000000000000000000000815260206004820152602f60248201527f43616e6e6f74206d696e74206d6f7265207468616e206f6e6520636974697a6560448201527f6e736869702070657220757365722e000000000000000000000000000000000060648201526084016109d5565b6000611430600f5490565b9050611440600f80546001019055565b61144a8382612158565b61145381611632565b60405173ffffffffffffffffffffffffffffffffffffffff8416815281907f251d8c81abc2854e19295bcad5302d465a8d5f055b3dfecd0fc4af72fdb066629060200160405180910390a2505050565b6000828152600e602052604081206114bb9083612172565b9392505050565b6060600180546108a5906139d4565b60006114dd8133612042565b60008260ff161161154a576040517f08c379a000000000000000000000000000000000000000000000000000000000815260206004820152601f60248201527f436974697a656e736869702070657220757365722063616e7420626520302e0060448201526064016109d5565b50601080547fffffffffffffffffffffffffffffffffffffffffffffffffffffffffffffff001660ff92909216919091179055565b61110133838361217e565b6115943383611c60565b611620576040517f08c379a000000000000000000000000000000000000000000000000000000000815260206004820152603160248201527f4552433732313a207472616e736665722063616c6c6572206973206e6f74206f60448201527f776e6572206e6f7220617070726f76656400000000000000000000000000000060648201526084016109d5565b61162c848484846122ac565b50505050565b600061163e8133612042565b60008281526012602052604090205460ff16156116b7576040517f08c379a000000000000000000000000000000000000000000000000000000000815260206004820152601b60248201527f436974697a656e7368697020616c726561647920656e61626c6564000000000060448201526064016109d5565b60008281526012602090815260409182902080547fffffffffffffffffffffffffffffffffffffffffffffffffffffffffffffff00166001908117909155915191825283917f784497dbdd4de438b11ba0e9889aa31d987248c6ea6d3cd0cd64ee57304b81eb91015b60405180910390a25050565b60606117366117a3565b61173f8361234f565b6040516020016117509291906137a5565b6040516020818303038152906040529050919050565b6000818152600e6020526040812061089090612481565b6000828152600d60205260409020600101546117998133612042565b610b8f8383612136565b6060601180546108a5906139d4565b60006117be8133612042565b81516117d19060119060208501906132a8565b507f188c06ddd69111f2471740a166424214d426a8246140be8ca6e5a5d2f22e22e48260405161180191906138e0565b60405180910390a15050565b60006118198133612042565b60008281526012602052604090205460ff16611891576040517f08c379a000000000000000000000000000000000000000000000000000000000815260206004820152601f60248201527f436974697a656e7368697020697320616c72656164792064697361626c65640060448201526064016109d5565b600082815260126020908152604080832080547fffffffffffffffffffffffffffffffffffffffffffffffffffffffffffffff001690555191825283917f784497dbdd4de438b11ba0e9889aa31d987248c6ea6d3cd0cd64ee57304b81eb9101611720565b80546001019055565b6000828152600d6020908152604080832073ffffffffffffffffffffffffffffffffffffffff8516845290915290205460ff16611101576000828152600d6020908152604080832073ffffffffffffffffffffffffffffffffffffffff85168452909152902080547fffffffffffffffffffffffffffffffffffffffffffffffffffffffffffffff001660011790556119953390565b73ffffffffffffffffffffffffffffffffffffffff168173ffffffffffffffffffffffffffffffffffffffff16837f2f8788117e7eff1d82e926ec794901d17c78024a50270940304540a733656f0d60405160405180910390a45050565b60006114bb8373ffffffffffffffffffffffffffffffffffffffff841661248b565b60007fffffffff0000000000000000000000000000000000000000000000000000000082167f5a05180f0000000000000000000000000000000000000000000000000000000014806108905750610890826124da565b600081815260046020526040902080547fffffffffffffffffffffffff00000000000000000000000000000000000000001673ffffffffffffffffffffffffffffffffffffffff84169081179091558190611ac5826111de565b73ffffffffffffffffffffffffffffffffffffffff167f8c5be1e5ebec7d5bd14f71427d1e84f3dd0314c0f7b2291e5b200ac8c7c3b92560405160405180910390a45050565b600073ffffffffffffffffffffffffffffffffffffffff8616611bb0576040517f08c379a000000000000000000000000000000000000000000000000000000000815260206004820152602560248201527f4e61746976654d6574615472616e73616374696f6e3a20494e56414c49445f5360448201527f49474e455200000000000000000000000000000000000000000000000000000060648201526084016109d5565b6001611bc3611bbe87612530565b6125ba565b6040805160008152602081018083529290925260ff851690820152606081018690526080810185905260a0016020604051602081039080840390855afa158015611c11573d6000803e3d6000fd5b5050506020604051035173ffffffffffffffffffffffffffffffffffffffff168673ffffffffffffffffffffffffffffffffffffffff1614905095945050505050565b60006114bb82846138f3565b60008181526002602052604081205473ffffffffffffffffffffffffffffffffffffffff16611d11576040517f08c379a000000000000000000000000000000000000000000000000000000000815260206004820152602c60248201527f4552433732313a206f70657261746f7220717565727920666f72206e6f6e657860448201527f697374656e7420746f6b656e000000000000000000000000000000000000000060648201526084016109d5565b6000611d1c836111de565b90508073ffffffffffffffffffffffffffffffffffffffff168473ffffffffffffffffffffffffffffffffffffffff161480611d8b57508373ffffffffffffffffffffffffffffffffffffffff16611d7384610928565b73ffffffffffffffffffffffffffffffffffffffff16145b80611dc8575073ffffffffffffffffffffffffffffffffffffffff80821660009081526005602090815260408083209388168352929052205460ff165b949350505050565b8273ffffffffffffffffffffffffffffffffffffffff16611df0826111de565b73ffffffffffffffffffffffffffffffffffffffff1614611e93576040517f08c379a000000000000000000000000000000000000000000000000000000000815260206004820152602960248201527f4552433732313a207472616e73666572206f6620746f6b656e2074686174206960448201527f73206e6f74206f776e000000000000000000000000000000000000000000000060648201526084016109d5565b73ffffffffffffffffffffffffffffffffffffffff8216611f35576040517f08c379a0000000000000000000000000000000000000000000000000000000008152602060048201526024808201527f4552433732313a207472616e7366657220746f20746865207a65726f2061646460448201527f726573730000000000000000000000000000000000000000000000000000000060648201526084016109d5565b611f40838383612605565b611f4b600082611a6b565b73ffffffffffffffffffffffffffffffffffffffff83166000908152600360205260408120805460019290611f8190849061395c565b909155505073ffffffffffffffffffffffffffffffffffffffff82166000908152600360205260408120805460019290611fbc9084906138f3565b909155505060008181526002602052604080822080547fffffffffffffffffffffffff00000000000000000000000000000000000000001673ffffffffffffffffffffffffffffffffffffffff86811691821790925591518493918716917fddf252ad1be2c89b69c2b068fc378daa952ba7f163c4a11628f55a4df523b3ef91a4505050565b6000828152600d6020908152604080832073ffffffffffffffffffffffffffffffffffffffff8516845290915290205460ff166111015761209a8173ffffffffffffffffffffffffffffffffffffffff16601461270b565b6120a583602061270b565b6040516020016120b69291906137d4565b604080517fffffffffffffffffffffffffffffffffffffffffffffffffffffffffffffffe0818403018152908290527f08c379a00000000000000000000000000000000000000000000000000000000082526109d5916004016138e0565b61211e82826118ff565b6000828152600e60205260409020610b8f90826119f3565b612140828261294e565b6000828152600e60205260409020610b8f9082612a09565b611101828260405180602001604052806000815250612a2b565b60006114bb8383612ace565b8173ffffffffffffffffffffffffffffffffffffffff168373ffffffffffffffffffffffffffffffffffffffff161415612214576040517f08c379a000000000000000000000000000000000000000000000000000000000815260206004820152601960248201527f4552433732313a20617070726f766520746f2063616c6c65720000000000000060448201526064016109d5565b73ffffffffffffffffffffffffffffffffffffffff83811660008181526005602090815260408083209487168084529482529182902080547fffffffffffffffffffffffffffffffffffffffffffffffffffffffffffffff001686151590811790915591519182527f17307eab39ab6107e8899845ad3d59bd9653f200f220920489ca2b5937696c31910160405180910390a3505050565b6122b7848484611dd0565b6122c384848484612af8565b61162c576040517f08c379a000000000000000000000000000000000000000000000000000000000815260206004820152603260248201527f4552433732313a207472616e7366657220746f206e6f6e20455243373231526560448201527f63656976657220696d706c656d656e746572000000000000000000000000000060648201526084016109d5565b60608161238f57505060408051808201909152600181527f3000000000000000000000000000000000000000000000000000000000000000602082015290565b8160005b81156123b957806123a381613a28565b91506123b29050600a8361390b565b9150612393565b60008167ffffffffffffffff8111156123d4576123d4613b31565b6040519080825280601f01601f1916602001820160405280156123fe576020820181803683370190505b5090505b8415611dc85761241360018361395c565b9150612420600a86613a61565b61242b9060306138f3565b60f81b81838151811061244057612440613b02565b60200101907effffffffffffffffffffffffffffffffffffffffffffffffffffffffffffff1916908160001a90535061247a600a8661390b565b9450612402565b6000610890825490565b60008181526001830160205260408120546124d257508154600181810184556000848152602080822090930184905584548482528286019093526040902091909155610890565b506000610890565b60007fffffffff0000000000000000000000000000000000000000000000000000000082167f7965db0b000000000000000000000000000000000000000000000000000000001480610890575061089082612cf7565b6000604051806080016040528060438152602001613b92604391398051602091820120835184830151604080870151805190860120905161259d9501938452602084019290925273ffffffffffffffffffffffffffffffffffffffff166040830152606082015260800190565b604051602081830303815290604052805190602001209050919050565b60006125c5600b5490565b6040517f1901000000000000000000000000000000000000000000000000000000000000602082015260228101919091526042810183905260620161259d565b73ffffffffffffffffffffffffffffffffffffffff831661266d5761266881600880546000838152600960205260408120829055600182018355919091527ff3f7a9fe364faab93b216da50a3214154f22a0a2b415b23a84c8169e8b636ee30155565b6126aa565b8173ffffffffffffffffffffffffffffffffffffffff168373ffffffffffffffffffffffffffffffffffffffff16146126aa576126aa8382612d4d565b73ffffffffffffffffffffffffffffffffffffffff82166126ce57610b8f81612e04565b8273ffffffffffffffffffffffffffffffffffffffff168273ffffffffffffffffffffffffffffffffffffffff1614610b8f57610b8f8282612eb3565b6060600061271a83600261391f565b6127259060026138f3565b67ffffffffffffffff81111561273d5761273d613b31565b6040519080825280601f01601f191660200182016040528015612767576020820181803683370190505b5090507f30000000000000000000000000000000000000000000000000000000000000008160008151811061279e5761279e613b02565b60200101907effffffffffffffffffffffffffffffffffffffffffffffffffffffffffffff1916908160001a9053507f78000000000000000000000000000000000000000000000000000000000000008160018151811061280157612801613b02565b60200101907effffffffffffffffffffffffffffffffffffffffffffffffffffffffffffff1916908160001a905350600061283d84600261391f565b6128489060016138f3565b90505b60018111156128e5577f303132333435363738396162636465660000000000000000000000000000000085600f166010811061288957612889613b02565b1a60f81b82828151811061289f5761289f613b02565b60200101907effffffffffffffffffffffffffffffffffffffffffffffffffffffffffffff1916908160001a90535060049490941c936128de8161399f565b905061284b565b5083156114bb576040517f08c379a000000000000000000000000000000000000000000000000000000000815260206004820181905260248201527f537472696e67733a20686578206c656e67746820696e73756666696369656e7460448201526064016109d5565b6000828152600d6020908152604080832073ffffffffffffffffffffffffffffffffffffffff8516845290915290205460ff1615611101576000828152600d6020908152604080832073ffffffffffffffffffffffffffffffffffffffff8516808552925280832080547fffffffffffffffffffffffffffffffffffffffffffffffffffffffffffffff0016905551339285917ff6391f5c32d9c69d2a47ea670b442974b53935d1edc7fd64eb21e047a839171b9190a45050565b60006114bb8373ffffffffffffffffffffffffffffffffffffffff8416612f04565b612a358383612ff7565b612a426000848484612af8565b610b8f576040517f08c379a000000000000000000000000000000000000000000000000000000000815260206004820152603260248201527f4552433732313a207472616e7366657220746f206e6f6e20455243373231526560448201527f63656976657220696d706c656d656e746572000000000000000000000000000060648201526084016109d5565b6000826000018281548110612ae557612ae5613b02565b9060005260206000200154905092915050565b600073ffffffffffffffffffffffffffffffffffffffff84163b15612cec576040517f150b7a0200000000000000000000000000000000000000000000000000000000815273ffffffffffffffffffffffffffffffffffffffff85169063150b7a0290612b6f903390899088908890600401613897565b602060405180830381600087803b158015612b8957600080fd5b505af1925050508015612bd7575060408051601f3d9081017fffffffffffffffffffffffffffffffffffffffffffffffffffffffffffffffe0168201909252612bd491810190613674565b60015b612ca1573d808015612c05576040519150601f19603f3d011682016040523d82523d6000602084013e612c0a565b606091505b508051612c99576040517f08c379a000000000000000000000000000000000000000000000000000000000815260206004820152603260248201527f4552433732313a207472616e7366657220746f206e6f6e20455243373231526560448201527f63656976657220696d706c656d656e746572000000000000000000000000000060648201526084016109d5565b805181602001fd5b7fffffffff00000000000000000000000000000000000000000000000000000000167f150b7a0200000000000000000000000000000000000000000000000000000000149050611dc8565b506001949350505050565b60007fffffffff0000000000000000000000000000000000000000000000000000000082167f780e9d630000000000000000000000000000000000000000000000000000000014806108905750610890826131c5565b60006001612d5a84611290565b612d64919061395c565b600083815260076020526040902054909150808214612dc45773ffffffffffffffffffffffffffffffffffffffff841660009081526006602090815260408083208584528252808320548484528184208190558352600790915290208190555b50600091825260076020908152604080842084905573ffffffffffffffffffffffffffffffffffffffff9094168352600681528383209183525290812055565b600854600090612e169060019061395c565b60008381526009602052604081205460088054939450909284908110612e3e57612e3e613b02565b906000526020600020015490508060088381548110612e5f57612e5f613b02565b6000918252602080832090910192909255828152600990915260408082208490558582528120556008805480612e9757612e97613ad3565b6001900381819060005260206000200160009055905550505050565b6000612ebe83611290565b73ffffffffffffffffffffffffffffffffffffffff9093166000908152600660209081526040808320868452825280832085905593825260079052919091209190915550565b60008181526001830160205260408120548015612fed576000612f2860018361395c565b8554909150600090612f3c9060019061395c565b9050818114612fa1576000866000018281548110612f5c57612f5c613b02565b9060005260206000200154905080876000018481548110612f7f57612f7f613b02565b6000918252602080832090910192909255918252600188019052604090208390555b8554869080612fb257612fb2613ad3565b600190038181906000526020600020016000905590558560010160008681526020019081526020016000206000905560019350505050610890565b6000915050610890565b73ffffffffffffffffffffffffffffffffffffffff8216613074576040517f08c379a000000000000000000000000000000000000000000000000000000000815260206004820181905260248201527f4552433732313a206d696e7420746f20746865207a65726f206164647265737360448201526064016109d5565b60008181526002602052604090205473ffffffffffffffffffffffffffffffffffffffff1615613100576040517f08c379a000000000000000000000000000000000000000000000000000000000815260206004820152601c60248201527f4552433732313a20746f6b656e20616c7265616479206d696e7465640000000060448201526064016109d5565b61310c60008383612605565b73ffffffffffffffffffffffffffffffffffffffff821660009081526003602052604081208054600192906131429084906138f3565b909155505060008181526002602052604080822080547fffffffffffffffffffffffff00000000000000000000000000000000000000001673ffffffffffffffffffffffffffffffffffffffff861690811790915590518392907fddf252ad1be2c89b69c2b068fc378daa952ba7f163c4a11628f55a4df523b3ef908290a45050565b60007fffffffff0000000000000000000000000000000000000000000000000000000082167f80ac58cd00000000000000000000000000000000000000000000000000000000148061325857507fffffffff0000000000000000000000000000000000000000000000000000000082167f5b5e139f00000000000000000000000000000000000000000000000000000000145b8061089057507f01ffc9a7000000000000000000000000000000000000000000000000000000007fffffffff00000000000000000000000000000000000000000000000000000000831614610890565b8280546132b4906139d4565b90600052602060002090601f0160209004810192826132d6576000855561331c565b82601f106132ef57805160ff191683800117855561331c565b8280016001018555821561331c579182015b8281111561331c578251825591602001919060010190613301565b5061332892915061332c565b5090565b5b80821115613328576000815560010161332d565b600067ffffffffffffffff8084111561335c5761335c613b31565b604051601f85017fffffffffffffffffffffffffffffffffffffffffffffffffffffffffffffffe0908116603f011681019082821181831017156133a2576133a2613b31565b816040528093508581528686860111156133bb57600080fd5b858560208301376000602087830101525050509392505050565b803573ffffffffffffffffffffffffffffffffffffffff811681146133f957600080fd5b919050565b600082601f83011261340f57600080fd5b6114bb83833560208501613341565b803560ff811681146133f957600080fd5b60006020828403121561344157600080fd5b6114bb826133d5565b6000806040838503121561345d57600080fd5b613466836133d5565b9150613474602084016133d5565b90509250929050565b60008060006060848603121561349257600080fd5b61349b846133d5565b92506134a9602085016133d5565b9150604084013590509250925092565b600080600080608085870312156134cf57600080fd5b6134d8856133d5565b93506134e6602086016133d5565b925060408501359150606085013567ffffffffffffffff81111561350957600080fd5b613515878288016133fe565b91505092959194509250565b6000806040838503121561353457600080fd5b61353d836133d5565b91506020830135801515811461355257600080fd5b809150509250929050565b600080600080600060a0868803121561357557600080fd5b61357e866133d5565b9450602086013567ffffffffffffffff81111561359a57600080fd5b6135a6888289016133fe565b94505060408601359250606086013591506135c36080870161341e565b90509295509295909350565b600080604083850312156135e257600080fd5b6135eb836133d5565b946020939093013593505050565b60006020828403121561360b57600080fd5b5035919050565b6000806040838503121561362557600080fd5b82359150613474602084016133d5565b6000806040838503121561364857600080fd5b50508035926020909101359150565b60006020828403121561366957600080fd5b81356114bb81613b60565b60006020828403121561368657600080fd5b81516114bb81613b60565b6000602082840312156136a357600080fd5b813567ffffffffffffffff8111156136ba57600080fd5b8201601f810184136136cb57600080fd5b611dc884823560208401613341565b6000602082840312156136ec57600080fd5b6114bb8261341e565b6000815180845261370d816020860160208601613973565b601f017fffffffffffffffffffffffffffffffffffffffffffffffffffffffffffffffe0169290920160200192915050565b60008251613751818460208701613973565b9190910192915050565b6000835161376d818460208801613973565b60609390931b7fffffffffffffffffffffffffffffffffffffffff000000000000000000000000169190920190815260140192915050565b600083516137b7818460208801613973565b8351908301906137cb818360208801613973565b01949350505050565b7f416363657373436f6e74726f6c3a206163636f756e742000000000000000000081526000835161380c816017850160208801613973565b7f206973206d697373696e6720726f6c65200000000000000000000000000000006017918401918201528351613849816028840160208801613973565b01602801949350505050565b600073ffffffffffffffffffffffffffffffffffffffff80861683528085166020840152506060604083015261388e60608301846136f5565b95945050505050565b600073ffffffffffffffffffffffffffffffffffffffff8087168352808616602084015250836040830152608060608301526138d660808301846136f5565b9695505050505050565b6020815260006114bb60208301846136f5565b6000821982111561390657613906613a75565b500190565b60008261391a5761391a613aa4565b500490565b6000817fffffffffffffffffffffffffffffffffffffffffffffffffffffffffffffffff048311821515161561395757613957613a75565b500290565b60008282101561396e5761396e613a75565b500390565b60005b8381101561398e578181015183820152602001613976565b8381111561162c5750506000910152565b6000816139ae576139ae613a75565b507fffffffffffffffffffffffffffffffffffffffffffffffffffffffffffffffff0190565b600181811c908216806139e857607f821691505b60208210811415613a22577f4e487b7100000000000000000000000000000000000000000000000000000000600052602260045260246000fd5b50919050565b60007fffffffffffffffffffffffffffffffffffffffffffffffffffffffffffffffff821415613a5a57613a5a613a75565b5060010190565b600082613a7057613a70613aa4565b500690565b7f4e487b7100000000000000000000000000000000000000000000000000000000600052601160045260246000fd5b7f4e487b7100000000000000000000000000000000000000000000000000000000600052601260045260246000fd5b7f4e487b7100000000000000000000000000000000000000000000000000000000600052603160045260246000fd5b7f4e487b7100000000000000000000000000000000000000000000000000000000600052603260045260246000fd5b7f4e487b7100000000000000000000000000000000000000000000000000000000600052604160045260246000fd5b7fffffffff0000000000000000000000000000000000000000000000000000000081168114613b8e57600080fd5b5056fe4d6574615472616e73616374696f6e2875696e74323536206e6f6e63652c616464726573732066726f6d2c62797465732066756e6374696f6e5369676e617475726529a2646970667358221220abc1b8e60de55e0d304df27004390ce5672378362d81744f832e6a0ae54c998564736f6c63430008070033454950373132446f6d61696e28737472696e67206e616d652c737472696e672076657273696f6e2c6164647265737320766572696679696e67436f6e74726163742c627974657333322073616c7429687474703a2f2f3134322e39332e3139352e3136393a333030312f6170692f636974697a656e736869702f",
  "linkReferences": {},
  "deployedLinkReferences": {}
}